1001540001442019080620190831
20000079720190831093257        RPS       0000000000002019083154000144213200792000432ZN ODONTOLOGIA LTDA                                                           Pça Manoel M Franca                               12        1º ANDAR                      Centro                        João Dourado                                      BA44920000zn.odontologia@hotmail.com                                                 4         000000000000        000000000010000000000000000000863050000000000000000000000000000000000S10000253378443500000000000000000000EDNEIA CAMPOS DE ARAUJO GOES                                                  AV DIVINO ESPIRITO SANTO                          195       CASA                          CALDEIRAO DO JACO             João Dourado                                      BA44920000                                                                           TRATAMENTO ODONTOLÓGICO.
20000079620190831093135        RPS       0000000000002019083154000144213200792000432ZN ODONTOLOGIA LTDA                                                           Pça Manoel M Franca                               12        1º ANDAR                      Centro                        João Dourado                                      BA44920000zn.odontologia@hotmail.com                                                 4         000000000000        000000000234000000000000000000863050000000000000000000000000000000000S10000089989848300000000000000000000JOSE LUCIVALDO DA SILVA SANTOS                                                RUA ANTONIO CARLOS DOURADO                                  POV. CONQUISTA                GRAÇA                         João Dourado                                      BA44920000                                                                           TRATAMENTO ODONTOLÓGICO.
20000079520190831092925        RPS       0000000000002019083154000144213200792000432ZN ODONTOLOGIA LTDA                                                           Pça Manoel M Franca                               12        1º ANDAR                      Centro                        João Dourado                                      BA44920000zn.odontologia@hotmail.com                                                 4         000000000000        000000000008000000000000000000863050000000000000000000000000000000000S10000537572554100000000000000000000VINICIUS RAIAN PEREIRA MIRANDA                                                RUA VITAL SILVA DOURADO                           51        CASA                          CENTRO                        João Dourado                                      BA44920000                                                                           TRATAMENTO ODONTOLÓGICO.
20000079420190827164058        RPS       0000000000002019082754000144213200792000432ZN ODONTOLOGIA LTDA                                                           Pça Manoel M Franca                               12        1º ANDAR                      Centro                        João Dourado                                      BA44920000zn.odontologia@hotmail.com                                                 4         000000000000        000000000002000000000000000000863050000000000000000000000000000000000S10000510019757900000000000000000000Thalles Almeida Maia                                                          Rua Edite cardoso                                 116       casa                          cen                           João Dourado                                      BA44920000                                                                           TRATAMENTO ODONTOLÓGICO.
20000079320190827114305        RPS       0000000000002019082754000144213200792000432ZN ODONTOLOGIA LTDA                                                           Pça Manoel M Franca                               12        1º ANDAR                      Centro                        João Dourado                                      BA44920000zn.odontologia@hotmail.com                                                 4         000000000000        000000000008000000000000000000863050000000000000000000000000000000000S10000537572554100000000000000000000VINICIUS RAIAN PEREIRA MIRANDA                                                RUA VITAL SILVA DOURADO                           51        CASA                          CENTRO                        João Dourado                                      BA44920000                                                                           TRATAMENTO ODONTOLÓGICO.
20000079220190827114201        RPS       0000000000002019082754000144213200792000432ZN ODONTOLOGIA LTDA                                                           Pça Manoel M Franca                               12        1º ANDAR                      Centro                        João Dourado                                      BA44920000zn.odontologia@hotmail.com                                                 4         000000000000        000000000051000000000000000000863050000000000000000000000000000000000S10000084071257000000000000000000000ANDERSON DOS SANTOS SILVA                                                     RUA ALÍPIO NUNES                                  135                                     CENTRO                        João Dourado                                      BA44920000                                                                           TRATAMENTO ODONTOLÓGICO.
20000079120190827113956        RPS       0000000000002019082754000144213200792000432ZN ODONTOLOGIA LTDA                                                           Pça Manoel M Franca                               12        1º ANDAR                      Centro                        João Dourado                                      BA44920000zn.odontologia@hotmail.com                                                 4         000000000000        000000000012000000000000000000863050000000000000000000000000000000000S10000529348853800000000000000000000MEIRILANE PASSOS BARRETO                                                      RUA HILDETE SILVA DOURADO                         36        CASA                          CENTRO                        João Dourado                                      BA44920000                                                                           TRATAMENTO ODONTOLÓGICO.
20000079020190827113823        RPS       0000000000002019082754000144213200792000432ZN ODONTOLOGIA LTDA                                                           Pça Manoel M Franca                               12        1º ANDAR                      Centro                        João Dourado                                      BA44920000zn.odontologia@hotmail.com                                                 4         000000000000        000000000008000000000000000000863050000000000000000000000000000000000S10000146066111700000000000000000000ALEXANDRE CORREIA DE ALMEIDA FILHO                                            RUA DAS PALMEIRA N° 90                                                                    CENTRO                        João Dourado                                      BA44920000                                                                           TRATAMENTO ODONTOLÓGICO.
20000078920190827110400        RPS       0000000000002019082754000144213200792000432ZN ODONTOLOGIA LTDA                                                           Pça Manoel M Franca                               12        1º ANDAR                      Centro                        João Dourado                                      BA44920000zn.odontologia@hotmail.com                                                 4         000000000000        000000000009000000000000000000863050000000000000000000000000000000000S10005195127450400000000000000000000Eládio Cardoso Dourado                                                        Praca Do Comercio                                           casa                          Belo Campo                    América Dourada                                   BA44910000                                                                           TRATAMENTO ODONTOLÓGICO.
20000078820190827105520        RPS       0000000000002019082754000144213200792000432ZN ODONTOLOGIA LTDA                                                           Pça Manoel M Franca                               12        1º ANDAR                      Centro                        João Dourado                                      BA44920000zn.odontologia@hotmail.com                                                 4         000000000000        000000000002000000000000000000863050000000000000000000000000000000000S10000523343558600000000000000000000Ioneide De Oliveira Santos                                                    Rua Adolfo Nunes Oliveira Santos                  380       casa                          Adolfo Nunes                  João Dourado                                      BA44920000                                                                           TRATAMENTO ODONTOLÓGICO.
20000078720190827104036        RPS       0000000000002019082754000144213200792000432ZN ODONTOLOGIA LTDA                                                           Pça Manoel M Franca                               12        1º ANDAR                      Centro                        João Dourado                                      BA44920000zn.odontologia@hotmail.com                                                 4         000000000000        000000000016000000000000000000863050000000000000000000000000000000000S10004492559183500000000000000000000Diego Santos De Jesus                                                         Rua Bela Vista                                    246       Casa                          ANA OLIVEIRA                  João Dourado                                      BA44920000                                                                           TRATAMENTO ODONTOLÓGICO.
20000078620190806102041        RPS       0000000000002019080654000144213200792000432ZN ODONTOLOGIA LTDA                                                           Pça Manoel M Franca                               12        1º ANDAR                      Centro                        João Dourado                                      BA44920000zn.odontologia@hotmail.com                                                 4         000000000000        000000000012000000000000000000863050000000000000000000000000000000000S10000529348853800000000000000000000MEIRILANE PASSOS BARRETO                                                      RUA HILDETE SILVA DOURADO                         36        CASA                          CENTRO                        João Dourado                                      BA44920000                                                                           Tratamento odontológico.
20000078520190806093810        RPS       0000000000002019080654000144213200792000432ZN ODONTOLOGIA LTDA                                                           Pça Manoel M Franca                               12        1º ANDAR                      Centro                        João Dourado                                      BA44920000zn.odontologia@hotmail.com                                                 4         000000000000        000000000008000000000000000000863050000000000000000000000000000000000S10000537572554100000000000000000000VINICIUS RAIAN PEREIRA MIRANDA                                                RUA VITAL SILVA DOURADO                           51        CASA                          CENTRO                        João Dourado                                      BA44920000                                                                           Tratamento Odontológico.
20000078420190806093446        RPS       0000000000002019080654000144213200792000432ZN ODONTOLOGIA LTDA                                                           Pça Manoel M Franca                               12        1º ANDAR                      Centro                        João Dourado                                      BA44920000zn.odontologia@hotmail.com                                                 4         000000000000        000000000008000000000000000000863050000000000000000000000000000000000S10000146066111700000000000000000000ALEXANDRE CORREIA DE ALMEIDA FILHO                                            RUA DAS PALMEIRA N° 90                                                                    CENTRO                        João Dourado                                      BA44920000                                                                           Tratamento odontológico.
20000078320190806093131        RPS       0000000000002019080654000144213200792000432ZN ODONTOLOGIA LTDA                                                           Pça Manoel M Franca                               12        1º ANDAR                      Centro                        João Dourado                                      BA44920000zn.odontologia@hotmail.com                                                 4         000000000000        000000000008000000000000000000863050000000000000000000000000000000000S10000774224851400000000000000000000ALANA ALMEIDA FIGUEREDO                                                       CALDEIRÃO DO JACÓ                                           CASA                          POVOADO                       João Dourado                                      BA44920000                                                                           Tratamento Odontológico .
20000078220190806092841        RPS       0000000000002019080654000144213200792000432ZN ODONTOLOGIA LTDA                                                           Pça Manoel M Franca                               12        1º ANDAR                      Centro                        João Dourado                                      BA44920000zn.odontologia@hotmail.com                                                 4         000000000000        000000000008000000000000000000863050000000000000000000000000000000000S10000698666259900000000000000000000LUIZ GUILERME DOURADO DOS SANTOS                                              RUA MANOEL QUERINO                                38                                      ANGICO                        João Dourado                                      BA44920000                                                                           Tratamento Odontológico .
90000016000000000404000000000000000000000000000000000000000000000000
