1001000000002019030120190328
20000005920190328092745        RPS       0000000000002019032800000000220156256000108                                                                                                                                                                                                      Bento Gonçalves                                     00000000                                                                           0         000000000000        000000000030000000000000000000004120000000000000000000000000000000000N10009771687107200000000000000000000ROSALI DE SOUZA                                                                                                                                                         SAO VENDELINO                 BENTO GONCALVES                                     95700000                                                                           
20000005820190328092335        RPS       0000000000002019032800000000220156256000108                                                                                                                                                                                                      Bento Gonçalves                                     00000000                                                                           0C        000000000000        000000000034000000000000000000004120000000000000000000000000000000000N10009771687107200000000000000000000ROSALI DE SOUZA                                                                                                                                                         SAO VENDELINO                 BENTO GONCALVES                                     95700000                                                                           
20000005720190327180053        RPS       0000000000002019032700000000220156256000108                                                                                                                                                                                                      Bento Gonçalves                                     00000000                                                                           0         000000000000        000000000025000000000000000000004120000000000000000000000000000000000N20000110242203700000000000000000000Tiago Locatelli                                                                                                                                                         Caminho da Eulalia            BENTO GONCALVES                                     95707620                                                                           
20000005620190327144321        RPS       0000000000002019032700000000220156256000108                                                                                                                                                                                                      Bento Gonçalves                                     00000000                                                                           0         000000000000        000000000036000000000000000000004120000000000000000000000000000000000N20000074855107700000000000000000000Aline Frizon Sartoretto                                                                                                                                                 Humaita                       BENTO GONCALVES                                     95705054                                                                           
20000005520190327092511        RPS       0000000000002019032700000000220156256000108                                                                                                                                                                                                      Bento Gonçalves                                     00000000                                                                           0         000000000000        000000000018000000000000000000004120000000000000000000000000000000000N20000116958308300000000000000000000MONIQUE BARATTO DE LIMA                                                                                                                   vazio                         VILA NOVA II                  BENTO GONCALVES                                     95700000                                                                           
20000005420190326112319        RPS       0000000000002019032600000000220156256000108                                                                                                                                                                                                      Bento Gonçalves                                     00000000                                                                           0         000000000000        000000000100000000000000000000004120000000000000000000000000000000000N20000072344008500000000000000000000DENIZE MARIA KONZEN                                                                                                                                                     Lot Verona                    BENTO GONCALVES                                     95700832                                                                           
20000005320190326110732        RPS       0000000000002019032600000000220156256000108                                                                                                                                                                                                      Bento Gonçalves                                     00000000                                                                           0         000000000000        000000000040000000000000000000004120000000000000000000000000000000000N10007576072008200000000000000000000OTAVIO DIAS DA COSTA MACHADO                                                                                                                                            CENTRO                        BENTO GONCALVES                                     95700000                                                                           
20000005220190322162209        RPS       0000000000002019032200000000220156256000108                                                                                                                                                                                                      Bento Gonçalves                                     00000000                                                                           0         000000000000        000000000025200000000000000000004120000000000000000000000000000000000N20000015404307900000000000000000000DOUGLAS TROIAN DOS SANTOS                                                                                                                                               LICORSUL                      BENTO GONCALVES                                     95705846                                                                           
20000005120190322135903        RPS       0000000000002019032200000000220156256000108                                                                                                                                                                                                      Bento Gonçalves                                     00000000                                                                           0         000000000000        000000000033600000000000000000004120000000000000000000000000000000000N10009675397802000000000000000000000EMILENE DE LIMA VARGAS                                                                                                                    QUADRA 16                     COHAB                         BENTO GONCALVES                                     95705692                                                                           
20000005020190321174412        RPS       0000000000002019032100000000220156256000108                                                                                                                                                                                                      Bento Gonçalves                                     00000000                                                                           0         000000000000        000000000020000000000000000000004120000000000000000000000000000000000N10006475665304900000000000000000000LILIANE REGINA SANTAREM PAVANELLO                                                                                                         Apartamento: 1003             SAO FRANCISCO                 BENTO GONCALVES                                     95703062                                                                           
20000004920190319173102        RPS       0000000000002019031900000000220156256000108                                                                                                                                                                                                      Bento Gonçalves                                     00000000                                                                           0         000000000000        000000000015000000000000000000004120000000000000000000000000000000000N20000535642709300000000000000000000BIANCA BIRCK FONSECA                                                                                                                                                    Centro                        BENTO GONCALVES                                     95700020                                                                           
20000004820190319135712        RPS       0000000000002019031900000000220156256000108                                                                                                                                                                                                      Bento Gonçalves                                     00000000                                                                           0         000000000000        000000000042500000000000000000004120000000000000000000000000000000000N10009926358004900000000000000000000DENISE COELHO                                                                                                                                                           SAO ROQUE                     BENTO GONCALVES                                     95700000                                                                           
20000004720190318090827        RPS       0000000000002019031800000000220156256000108                                                                                                                                                                                                      Bento Gonçalves                                     00000000                                                                           0         000000000000        000000000038000000000000000000004120000000000000000000000000000000000N10004765954803400000000000000000000RAQUEL MENEGUZZO SANSEVERINO                                                                                                                                            PROGRESSO                     BENTO GONCALVES                                     95700001raquel.senseverino@bentogoncalves.rs.gov.br                                
20000004620190315145209        RPS       0000000000002019031500000000220156256000108                                                                                                                                                                                                      Bento Gonçalves                                     00000000                                                                           0         000000000000        000000000700000000000000000000004120000000000000000000000000000000000N10001028783302000000000000000000000MARIA SALETE RIGO DE OLIVEIRA                                                                                                                                           SAO FRANCISCO                 BENTO GONCALVES                                     95700001                                                                           
20000004520190314180739        RPS       0000000000002019031400000000220156256000108                                                                                                                                                                                                      Bento Gonçalves                                     00000000                                                                           0         000000000000        000000000028000000000000000000004120000000000000000000000000000000000N10007304165308700000000000000000000Rejane de Souza                                                                                                                                                         Sï¿½o Vedelino                BENTO GONCALVES                                     00000000                                                                           
20000004420190314175528        RPS       0000000000002019031400000000220156256000108                                                                                                                                                                                                      Bento Gonçalves                                     00000000                                                                           0         000000000000        000000000070000000000000000000004120000000000000000000000000000000000N10005140399407200000000000000000000NEIVA FERRI                                                                                                                                                             .                             BENTO GONCALVES                                     95700001                                                                           
20000004320190313170633        RPS       0000000000002019031300000000220156256000108                                                                                                                                                                                                      Bento Gonçalves                                     00000000                                                                           0         000000000000        000000000028000000000000000000004120000000000000000000000000000000000N10008317938000400000000000000000000PALOMA FATIMA MENEZES DA ROSA GARCEZ TEIXEIRA                                                                                             APTO 1204 - Apartamento: 901  CENTRO                        BENTO GONCALVES                                     95700028                                                                           
20000004220190313101953        RPS       0000000000002019031300000000220156256000108                                                                                                                                                                                                      Bento Gonçalves                                     00000000                                                                           0         000000000000        000000000040000000000000000000004120000000000000000000000000000000000N10006652743000000000000000000000000LISANDRO LAZZAROTTO                                                                                                                                                     BORGO                         BENTO GONCALVES                                     95705420lisandrolazzarotto@hotmail.com                                             
20000004120190312113856        RPS       0000000000002019031200000000220156256000108                                                                                                                                                                                                      Bento Gonçalves                                     00000000                                                                           0         000000000000        000000000022000000000000000000004120000000000000000000000000000000000N20000232265402700000000000000000000DEISE BRANCHER                                                                                                                                                          CIDADE ALTA                   BENTO GONCALVES                                     95700000deisebrancher@gmail.com                                                    
20000004020190312112443        RPS       0000000000002019031200000000220156256000108                                                                                                                                                                                                      Bento Gonçalves                                     00000000                                                                           0         000000000000        000000000018000000000000000000004120000000000000000000000000000000000N10009827750208700000000000000000000FERNANDO CARBONARI                                                                                                                        AP 404                        BOTAFOGO                      BENTO GONCALVES                                     95700000fernando.carbonari@carraro.com.br                                          
20000003920190311152847        RPS       0000000000002019031100000000220156256000108                                                                                                                                                                                                      Bento Gonçalves                                     00000000                                                                           0         000000000000        000000000040000000000000000000004120000000000000000000000000000000000N10005784419404900000000000000000000ADRIANA ESTELA BOHN VIVIANI                                                                                                                                             SAO ROQUE                     BENTO GONCALVES                                     95700000                                                                           
20000003820190311114501        RPS       0000000000002019031100000000220156256000108                                                                                                                                                                                                      Bento Gonçalves                                     00000000                                                                           0         000000000000        000000000040000000000000000000004120000000000000000000000000000000000N20000120503107300000000000000000000NATALIA PAGOT TUMELERO                                                                                                                    APTO 802 - Apartamento: 802   CENTRO                        BENTO GONCALVES                                     95700170                                                                           
20000003720190311091628        RPS       0000000000002019031100000000220156256000108                                                                                                                                                                                                      Bento Gonçalves                                     00000000                                                                           0         000000000000        000000000017000000000000000000004120000000000000000000000000000000000N20000170730506400000000000000000000LUCIELE SOUZA QUERINO                                                                                                                                                   Sao Roque                     BENTO GONCALVES                                     95708050                                                                           
20000003620190308163542        RPS       0000000000002019030800000000220156256000108                                                                                                                                                                                                      Bento Gonçalves                                     00000000                                                                           0         000000000000        000000000120000000000000000000004120000000000000000000000000000000000N20000155306405400000000000000000000ANA PAULA BOLDRINI DE OLIVEIRA                                                                                                                                          PLANALTO                      BENTO GONCALVES                                     95703275                                                                           
20000003520190308091653        RPS       0000000000002019030800000000220156256000108                                                                                                                                                                                                      Bento Gonçalves                                     00000000                                                                           0         000000000000        000000000060000000000000000000004120000000000000000000000000000000000N10006893036400400000000000000000000LEANDRO ZANESCO                                                                                                                           APTO 304 - Apartamento: 304   SAO BENTO                     BENTO GONCALVES                                     95700001                                                                           
20000003420190307163201        RPS       0000000000002019030700000000220156256000108                                                                                                                                                                                                      Bento Gonçalves                                     00000000                                                                           0         000000000000        000000000018000000000000000000004120000000000000000000000000000000000N20000056495200100000000000000000000ALEXANDRE BEAL                                                                                                                                                          Progresso                     BENTO GONCALVES                                     95705186                                                                           
20000003320190307102703        RPS       0000000000002019030700000000220156256000108                                                                                                                                                                                                      Bento Gonçalves                                     00000000                                                                           0         000000000000        000000000025200000000000000000004120000000000000000000000000000000000N20000211471690200000000000000000000ANELISE STUART DA SILVA                                                                                                                                                 Centro                        PALHOCA                                             88130100                                                                           
20000003220190306142835        RPS       0000000000002019030600000000220156256000108                                                                                                                                                                                                      Bento Gonçalves                                     00000000                                                                           0         000000000000        000000000025000000000000000000004120000000000000000000000000000000000N10005986641108700000000000000000000Clarice Bortoncello                                                                                                                                                     Licorsul                      BENTO GONCALVES                                     00000000                                                                           
20000003120190301133927        RPS       0000000000002019030100000000220156256000108                                                                                                                                                                                                      Bento Gonçalves                                     00000000                                                                           0         000000000000        000000000040000000000000000000004120000000000000000000000000000000000N20000080636802000000000000000000000Jacqueline Garcia Bittencourt                                                                                                                                           Santo Antao                   BENTO GONCALVES                                     95702704                                                                           
20000003020190301111038        RPS       0000000000002019030100000000220156256000108                                                                                                                                                                                                      Bento Gonçalves                                     00000000                                                                           0         000000000000        000000000020000000000000000000004120000000000000000000000000000000000N10006127582407200000000000000000000DILï¿½O BATISTA RODRIGUES                                                                                                                                               Sao Francisco                 BENTO GONCALVES                                     95703162                                                                           
20000002920190301103930        RPS       0000000000002019030100000000220156256000108                                                                                                                                                                                                      Bento Gonçalves                                     00000000                                                                           0         000000000000        000000000028000000000000000000004120000000000000000000000000000000000N10006475665304900000000000000000000LILIANE REGINA SANTAREM PAVANELLO                                                                                                         Apartamento: 1003             SAO FRANCISCO                 BENTO GONCALVES                                     95703062                                                                           
90000031000000001796500000000000000000000000000000000000000000000000
