1001005772802019010220200129
20000109620200129000000        RPS       0000000000002020012900577280231002663000179F D M DOS SANTOS LOPES E AVELAR                                               RUA ALFREDO FONTAO                                2-73                                    JD. PAULISTA                  BAURU                                             SP17017240ilton@esolucao.net                                                         4         000000000000        000000000048333000000000000000004120000000000000000000000000000000000N10000789816385000000000000000000000JOAO RENATO DA SILVA FERNANDES                                                R GALVAO DE CASTRO                                1340      APTO 63A                      VILA MONLEVADE                BAURU                                             SP17030026renato.fer@hotmail.com                                                     SERVIÇOS ODONTOLÓGICOS
20000109920200129000000        RPS       0000000000002020012900577280231002663000179F D M DOS SANTOS LOPES E AVELAR                                               RUA ALFREDO FONTAO                                2-73                                    JD. PAULISTA                  BAURU                                             SP17017240ilton@esolucao.net                                                         4         000000000000        000000000011100000000000000000004120000000000000000000000000000000000N10003367388688600000000000000000000TABATA FAVEIRA RUAS                                                           RUA JOSÉ FRANCISCO DOS SANTOS                     258                                     VL HONORINA                   AGUDOS                                            SP17120000tabatataveira@yahoo.com.br                                                 SERVIÇOS ODONTOLÓGICOS
20000109820200129000000        RPS       0000000000002020012900577280231002663000179F D M DOS SANTOS LOPES E AVELAR                                               RUA ALFREDO FONTAO                                2-73                                    JD. PAULISTA                  BAURU                                             SP17017240ilton@esolucao.net                                                         4         000000000000        000000000010805000000000000000004120000000000000000000000000000000000N10001366309383200000000000000000000LEILA CRISTINA PICOLO BASSI                                                   RUA NATAL PICOLO                                  1-99                                    BICA DE PEDRA                 ITAPUÍ                                            SP17230000                                                                           SERVIÇOS ODONTOLÓGICOS
20000109720200129000000        RPS       0000000000002020012900577280231002663000179F D M DOS SANTOS LOPES E AVELAR                                               RUA ALFREDO FONTAO                                2-73                                    JD. PAULISTA                  BAURU                                             SP17017240ilton@esolucao.net                                                         4         000000000000        000000000023333000000000000000004120000000000000000000000000000000000N10001327572184400000000000000000000SARA ALVES DOS SANTOS PICOLO                                                  RUAALCIDIODOSSANTOS 50                            50                                      JARDIM JUNQUEIRA MEIRELES     PRESIDENTE ALVES                                  SP01667000marildoignacio123@gmail.com                                                SERVIÇOS ODONTOLÓGICOS
20000109520200128000000        RPS       0000000000002020012800577280231002663000179F D M DOS SANTOS LOPES E AVELAR                                               RUA ALFREDO FONTAO                                2-73                                    JD. PAULISTA                  BAURU                                             SP17017240ilton@esolucao.net                                                         4         000000000000        000000000009375000000000000000004120000000000000000000000000000000000N10002759161080500000000000000000000MARIA REGINA DE LIMA                                                          RUA CÍCERO BISPO DE SOUZA                         2-135                                   JARDIM OLÍMPICO               BAURU                                             SP17032640lmariaregina@yahoo.com.br                                                  SERVIÇOS ODONTOLÓGICOS
20000109420200127000000        RPS       0000000000002020012700577280231002663000179F D M DOS SANTOS LOPES E AVELAR                                               RUA ALFREDO FONTAO                                2-73                                    JD. PAULISTA                  BAURU                                             SP17017240ilton@esolucao.net                                                         4         000000000000        000000000010000000000000000000004120000000000000000000000000000000000N10001310171580600000000000000000000VALDINEI DINIZ                                                                RUA MAJOR ANTÔNIO FIUZA FLORÊNCIO DO AMARAL       81                                      VILA SÃO JUDAS TADEU          LENÇÓIS PAULISTA                                  SP18682630                                                                           SERVIÇOS ODONTOLÓGICOS
20000109320200127000000        RPS       0000000000002020012700577280231002663000179F D M DOS SANTOS LOPES E AVELAR                                               RUA ALFREDO FONTAO                                2-73                                    JD. PAULISTA                  BAURU                                             SP17017240ilton@esolucao.net                                                         4         000000000000        000000000011500000000000000000004120000000000000000000000000000000000N10000583809189400000000000000000000LILSON HENRIQUE LOSTORTO                                                      RAPOSO TAVARES QUADRA DE 1 A 8                    445                                     SANTO ANTONIO                 BAURU                                             SP17013031                                                                           SERVIÇOS ODONTOLÓGICOS
20000108820200127000000        RPS       0000000000002020012700577280231002663000179F D M DOS SANTOS LOPES E AVELAR                                               RUA ALFREDO FONTAO                                2-73                                    JD. PAULISTA                  BAURU                                             SP17017240ilton@esolucao.net                                                         4         000000000000        000000000027942000000000000000004120000000000000000000000000000000000N10000678157782400000000000000000000TOMADOR DE SERVICO DE ESTACIONAMENTO                                          NAO INFORMADO                                     SN        NAO INFORMADO                 NAO INFORMADO                 BAURU                                             SP00000000                                                                           SERVIÇOS ODONTOLÓGICOS
20000109120200127000000        RPS       0000000000002020012700577280231002663000179F D M DOS SANTOS LOPES E AVELAR                                               RUA ALFREDO FONTAO                                2-73                                    JD. PAULISTA                  BAURU                                             SP17017240ilton@esolucao.net                                                         4         000000000000        000000000027375000000000000000004120000000000000000000000000000000000N10000768292581700000000000000000000MARIA APARECIDA DA SILVA MARQUES                                              RUA HERMENEGILDO QUAGLIATO                        3-36                                    PQ UNIAO                      BAURU                                             SP17063256lasilva02@hotmail.com                                                      SERVIÇOS ODONTOLÓGICOS
20000109020200127000000        RPS       0000000000002020012700577280231002663000179F D M DOS SANTOS LOPES E AVELAR                                               RUA ALFREDO FONTAO                                2-73                                    JD. PAULISTA                  BAURU                                             SP17017240ilton@esolucao.net                                                         4         000000000000        000000000018500000000000000000004120000000000000000000000000000000000N10003777099783600000000000000000000TOMADOR DE SERVICO DE ESTACIONAMENTO                                          NAO INFORMADO                                     SN        NAO INFORMADO                 NAO INFORMADO                 BAURU                                             SP00000000                                                                           SERVIÇOS ODONTOLÓGICOS
20000108920200127000000        RPS       0000000000002020012700577280231002663000179F D M DOS SANTOS LOPES E AVELAR                                               RUA ALFREDO FONTAO                                2-73                                    JD. PAULISTA                  BAURU                                             SP17017240ilton@esolucao.net                                                         4         000000000000        000000000020000000000000000000004120000000000000000000000000000000000N10000617389187500000000000000000000CELSO WAGNER THIAGO                                                           RUA ADOLFO AUGUSTO PINTO, 1.31                    _         _                             VILA MARTHA                   BAURU                                             SP17050146                                                                           SERVIÇOS ODONTOLÓGICOS
20000109220200127000000        RPS       0000000000002020012700577280231002663000179F D M DOS SANTOS LOPES E AVELAR                                               RUA ALFREDO FONTAO                                2-73                                    JD. PAULISTA                  BAURU                                             SP17017240ilton@esolucao.net                                                         4         000000000000        000000000027375000000000000000004120000000000000000000000000000000000N10000768292581700000000000000000000MARIA APARECIDA DA SILVA MARQUES                                              RUA HERMENEGILDO QUAGLIATO                        3-36                                    PQ UNIAO                      BAURU                                             SP17063256lasilva02@hotmail.com                                                      SERVIÇOS ODONTOLÓGICOS
20000108720200127000000        RPS       0000000000002020012700577280231002663000179F D M DOS SANTOS LOPES E AVELAR                                               RUA ALFREDO FONTAO                                2-73                                    JD. PAULISTA                  BAURU                                             SP17017240ilton@esolucao.net                                                         4         000000000000        000000000054375000000000000000004120000000000000000000000000000000000N10000242620680200000000000000000000LUIZ ANTONIO C GONCALVES                                                      AVENIDA NOSSA SENHORA DE FATIMA, 6.60-APT.21      _         _                             JARDIM AMERICA                BAURU                                             SP17017337                                                                           SERVIÇOS ODONTOLÓGICOS
20000108620200123000000        RPS       0000000000002020012300577280231002663000179F D M DOS SANTOS LOPES E AVELAR                                               RUA ALFREDO FONTAO                                2-73                                    JD. PAULISTA                  BAURU                                             SP17017240ilton@esolucao.net                                                         4         000000000000        000000000010000000000000000000004120000000000000000000000000000000000N10003218651980100000000000000000000GUILHERME GOTO                                                                RUA                                               1                                       CENTRO                        BAURU                                             SP17100000                                                                           SERVIÇOS ODONTOLÓGICOS
20000108320200121000000        RPS       0000000000002020012100577280231002663000179F D M DOS SANTOS LOPES E AVELAR                                               RUA ALFREDO FONTAO                                2-73                                    JD. PAULISTA                  BAURU                                             SP17017240ilton@esolucao.net                                                         4         000000000000        000000000020000000000000000000004120000000000000000000000000000000000N10000681263180900000000000000000000EMILIO PERAL CAMAFORTE                                                        RUA ERNESTO TURINI                                4-43                                    JARDIM FLORIDA                BAURU                                             SP17024680ecamaforte@yahoo.com.br                                                    SERVIÇOS ODONTOLÓGICOS
20000108220200121000000        RPS       0000000000002020012100577280231002663000179F D M DOS SANTOS LOPES E AVELAR                                               RUA ALFREDO FONTAO                                2-73                                    JD. PAULISTA                  BAURU                                             SP17017240ilton@esolucao.net                                                         4         000000000000        000000000019000000000000000000004120000000000000000000000000000000000N10003102039383100000000000000000000JOAO GUSTAVO DE LIMA                                                          RUA SETE DE SETEMBRO                              988250749                               CENTRO                        BAURU                                             SP17015030recepcaopa@beneficenciabauru.com                                           SERVIÇOS ODONTOLÓGICOS
20000108520200121000000        RPS       0000000000002020012100577280231002663000179F D M DOS SANTOS LOPES E AVELAR                                               RUA ALFREDO FONTAO                                2-73                                    JD. PAULISTA                  BAURU                                             SP17017240ilton@esolucao.net                                                         4         000000000000        000000000008500000000000000000004120000000000000000000000000000000000N10001139311786400000000000000000000RODNEI ADOLFO PEREIRA DE ANDRADE                                              R SEBASTIAO PREGNOLATO 6-70                       BL F AP 33                              JARDIM AURI VERDE             BAURU                                             SP17047145rodneiapa@hotmail.com                                                      SERVIÇOS ODONTOLÓGICOS
20000108420200121000000        RPS       0000000000002020012100577280231002663000179F D M DOS SANTOS LOPES E AVELAR                                               RUA ALFREDO FONTAO                                2-73                                    JD. PAULISTA                  BAURU                                             SP17017240ilton@esolucao.net                                                         4         000000000000        000000000025000000000000000000004120000000000000000000000000000000000N10002794262483800000000000000000000TOMADOR DE SERVICO DE ESTACIONAMENTO                                          NAO INFORMADO                                     SN        NAO INFORMADO                 NAO INFORMADO                 BAURU                                             SP00000000                                                                           SERVIÇOS ODONTOLÓGICOS
20000107220200120000000        RPS       0000000000002020012000577280231002663000179F D M DOS SANTOS LOPES E AVELAR                                               RUA ALFREDO FONTAO                                2-73                                    JD. PAULISTA                  BAURU                                             SP17017240ilton@esolucao.net                                                         4         000000000000        000000000091667000000000000000004120000000000000000000000000000000000N10001617651680300000000000000000000RENATO JOSE MALDONADO                                                         RUA NOÉ ONOFRE TEIXEIRA                           10-70                                   JARDIM DONA LILI              BAURU                                             SP17032500ag.brasilmultimarcas@outlook.com                                           SERVIÇOS ODONTOLÓGICOS
20000107820200120000000        RPS       0000000000002020012000577280231002663000179F D M DOS SANTOS LOPES E AVELAR                                               RUA ALFREDO FONTAO                                2-73                                    JD. PAULISTA                  BAURU                                             SP17017240ilton@esolucao.net                                                         4         000000000000        000000000014250000000000000000004120000000000000000000000000000000000N10003704500089800000000000000000000EVELYSE DE CASSIA VICENTE                                                     RUA PEDRO OLIVEIRA TAVARES 189                    00                                      JARDIM COLONIAL               BAURU                                             SP17047595                                                                           SERVIÇOS ODONTOLÓGICOS
20000108120200120000000        RPS       0000000000002020012000577280231002663000179F D M DOS SANTOS LOPES E AVELAR                                               RUA ALFREDO FONTAO                                2-73                                    JD. PAULISTA                  BAURU                                             SP17017240ilton@esolucao.net                                                         4         000000000000        000000000160000000000000000000004120000000000000000000000000000000000N10006995466640000000000000000000000ANTONIA PEREIRA DE LIMA                                                       RUA PADRE MÁRIO LABARBUTA                         440                                     VILA SÃO PAULO                BAURU                                             SP17022121                                                                           SERVIÇOS ODONTOLÓGICOS
20000108020200120000000        RPS       0000000000002020012000577280231002663000179F D M DOS SANTOS LOPES E AVELAR                                               RUA ALFREDO FONTAO                                2-73                                    JD. PAULISTA                  BAURU                                             SP17017240ilton@esolucao.net                                                         4         000000000000        000000000053500000000000000000004120000000000000000000000000000000000N10000048022780200000000000000000000MARIA DAS DORES EDUARDO AGUILLERA                                             RUA CICERO BISPO DE SOUZA                         3-52                                    JD OLIMPICO                   BAURU                                             SP17032640maria@gmail.com                                                            SERVIÇOS ODONTOLÓGICOS
20000107420200120000000        RPS       0000000000002020012000577280231002663000179F D M DOS SANTOS LOPES E AVELAR                                               RUA ALFREDO FONTAO                                2-73                                    JD. PAULISTA                  BAURU                                             SP17017240ilton@esolucao.net                                                         4         000000000000        000000000023333000000000000000004120000000000000000000000000000000000N10002228898481300000000000000000000MICHELY F MANTOVANI                                                           RUA ALAGOAS                                       10-45                                   BAURU                         BAURU                                             SP17100000                                                                           SERVIÇOS ODONTOLÓGICOS
20000107320200120000000        RPS       0000000000002020012000577280231002663000179F D M DOS SANTOS LOPES E AVELAR                                               RUA ALFREDO FONTAO                                2-73                                    JD. PAULISTA                  BAURU                                             SP17017240ilton@esolucao.net                                                         4         000000000000        000000000020000000000000000000004120000000000000000000000000000000000N10000980631688600000000000000000000EDNEI SANDRO REVERSI                                                          RUA PIAUI                                         2-21      APTO B 4S                     VILA CARDIA                   BAURU                                             SP17013600                                                                           SERVIÇOS ODONTOLÓGICOS
20000107920200120000000        RPS       0000000000002020012000577280231002663000179F D M DOS SANTOS LOPES E AVELAR                                               RUA ALFREDO FONTAO                                2-73                                    JD. PAULISTA                  BAURU                                             SP17017240ilton@esolucao.net                                                         4         000000000000        000000000020000000000000000000004120000000000000000000000000000000000N10001648721982700000000000000000000ADRIANA MENEGATI NAVARRO                                                      R AVIADOR MARQUES DE PINEDO                       13-60                                   PRQ JD EUROPA                 BAURU                                             SP17017460adriana.juliocesar@hotmail.com                                             SERVIÇOS ODONTOLÓGICOS
20000107620200120000000        RPS       0000000000002020012000577280231002663000179F D M DOS SANTOS LOPES E AVELAR                                               RUA ALFREDO FONTAO                                2-73                                    JD. PAULISTA                  BAURU                                             SP17017240ilton@esolucao.net                                                         4         000000000000        000000000022875000000000000000004120000000000000000000000000000000000N10003092130782900000000000000000000KLEBER BARROS DA SILVA                                                        RUA LAZARO LUIZ ZAMENHOF                          1-14                                    NÚCLEO RESIDENCIAL PRESIDENTE BAURU                                             SP17033423                                                                           SERVIÇOS ODONTOLÓGICOS
20000107720200120000000        RPS       0000000000002020012000577280231002663000179F D M DOS SANTOS LOPES E AVELAR                                               RUA ALFREDO FONTAO                                2-73                                    JD. PAULISTA                  BAURU                                             SP17017240ilton@esolucao.net                                                         4         000000000000        000000000014500000000000000000004120000000000000000000000000000000000N10002130107184600000000000000000000NELSON MEDEIROS DA SILVA FILHO                                                AV. ORLANDO RANIERI 7-108-B 31 AP 2               2                                       PARQUE RESIDENCIAL DAS CAMELIABAURU                                             SP17047001                                                                           SERVIÇOS ODONTOLÓGICOS
20000107520200120000000        RPS       0000000000002020012000577280231002663000179F D M DOS SANTOS LOPES E AVELAR                                               RUA ALFREDO FONTAO                                2-73                                    JD. PAULISTA                  BAURU                                             SP17017240ilton@esolucao.net                                                         4         000000000000        000000000025000000000000000000004120000000000000000000000000000000000N10008244502886800000000000000000000FATIMA APARECIDA CAMPOS                                                       RUA BALTAZAR RODRIGUES                            357                                     JARDIM PLANALTO               BAURU                                             SP17012621                                                                           SERVIÇOS ODONTOLÓGICOS
20000106720200117000000        RPS       0000000000002020011700577280231002663000179F D M DOS SANTOS LOPES E AVELAR                                               RUA ALFREDO FONTAO                                2-73                                    JD. PAULISTA                  BAURU                                             SP17017240ilton@esolucao.net                                                         4         000000000000        000000000400000000000000000000004120000000000000000000000000000000000N10002200224788900000000000000000000LAURO ROBERTO DE BRITO BITTENCOURT                                            R RUA SAINT MARTIN QUADRA                         75        75                            VILA AEROPORTO BAURU          BAURU                                             SP17012433                                                                           SERVIÇOS ODONTOLÓGICOS
20000106820200117000000        RPS       0000000000002020011700577280231002663000179F D M DOS SANTOS LOPES E AVELAR                                               RUA ALFREDO FONTAO                                2-73                                    JD. PAULISTA                  BAURU                                             SP17017240ilton@esolucao.net                                                         4         000000000000        000000000029333000000000000000004120000000000000000000000000000000000N10000617389187500000000000000000000CELSO WAGNER THIAGO                                                           RUA ADOLFO AUGUSTO PINTO, 1.31                    _         _                             VILA MARTHA                   BAURU                                             SP17050146                                                                           SERVIÇOS ODONTOLÓGICOS
20000106920200117000000        RPS       0000000000002020011700577280231002663000179F D M DOS SANTOS LOPES E AVELAR                                               RUA ALFREDO FONTAO                                2-73                                    JD. PAULISTA                  BAURU                                             SP17017240ilton@esolucao.net                                                         4         000000000000        000000000039750000000000000000004120000000000000000000000000000000000N10000680679880200000000000000000000MARTA MARIA CAPUANI PEREIRA GOMES                                             RUA ANTÔNIO GALVES                                1-118                                   NÚCLEO HABITACIONAL VANUIRE   BAURU                                             SP17022830martacapuani@hotmail.com                                                   SERVIÇOS ODONTOLÓGICOS
20000107120200117000000        RPS       0000000000002020011700577280231002663000179F D M DOS SANTOS LOPES E AVELAR                                               RUA ALFREDO FONTAO                                2-73                                    JD. PAULISTA                  BAURU                                             SP17017240ilton@esolucao.net                                                         4         000000000000        000000000053180000000000000000004120000000000000000000000000000000000N10000789576082300000000000000000000ALICE DE FÁTIMA XAVIER                                                        RUA EDILSON ALVES DE CARVALHO                     1-66                                    VILA JARDIM CELINA            BAURU                                             SP17055090alice_axavier@hotmail.com                                                  SERVIÇOS ODONTOLÓGICOS
20000107020200117000000        RPS       0000000000002020011700577280231002663000179F D M DOS SANTOS LOPES E AVELAR                                               RUA ALFREDO FONTAO                                2-73                                    JD. PAULISTA                  BAURU                                             SP17017240ilton@esolucao.net                                                         4         000000000000        000000000089858000000000000000004120000000000000000000000000000000000N10006039048484900000000000000000000MIGUEL ANGELO VIEIRA                                                          RUA HOLMES SOARES COSTA                           32        Q 01                          PARQUE UNIAO                  BAURU                                             SP17063210miguel@migfoto.com.br                                                      SERVIÇOS ODONTOLÓGICOS
20000106520200116000000        RPS       0000000000002020011600577280231002663000179F D M DOS SANTOS LOPES E AVELAR                                               RUA ALFREDO FONTAO                                2-73                                    JD. PAULISTA                  BAURU                                             SP17017240ilton@esolucao.net                                                         4         000000000000        000000000150000000000000000000004120000000000000000000000000000000000N10000921414242400000000000000000000MANOEL FRANCISCO FERREIRA                                                     R AL AMOR PERFEITO                                8-48                                    PQ VISTA ALEGRE               BAURU                                             SP17020480naotem@uol.com.br                                                          SERVIÇOS ODONTOLÓGICOS
20000106620200116000000        RPS       0000000000002020011600577280231002663000179F D M DOS SANTOS LOPES E AVELAR                                               RUA ALFREDO FONTAO                                2-73                                    JD. PAULISTA                  BAURU                                             SP17017240ilton@esolucao.net                                                         4         000000000000        000000000400000000000000000000004120000000000000000000000000000000000N10002200224788900000000000000000000LAURO ROBERTO DE BRITO BITTENCOURT                                            R RUA SAINT MARTIN QUADRA                         75        75                            VILA AEROPORTO BAURU          BAURU                                             SP17012433                                                                           SERVIÇOS ODONTOLÓGICOS
20000106420200116000000        RPS       0000000000002020011600577280231002663000179F D M DOS SANTOS LOPES E AVELAR                                               RUA ALFREDO FONTAO                                2-73                                    JD. PAULISTA                  BAURU                                             SP17017240ilton@esolucao.net                                                         4         000000000000        000000000012000000000000000000004120000000000000000000000000000000000N10003070576486900000000000000000000FABIANO VIRGÍLIO DA SILVA                                                     R GIOCONDO TURINI                                 8-24                                    JARDIM OURO VERDE             BAURU                                             SP17056035fabiano_vir@hotmail.com                                                    SERVIÇOS ODONTOLÓGICOS
20000106320200115000000        RPS       0000000000002020011500577280231002663000179F D M DOS SANTOS LOPES E AVELAR                                               RUA ALFREDO FONTAO                                2-73                                    JD. PAULISTA                  BAURU                                             SP17017240ilton@esolucao.net                                                         4         000000000000        000000000200000000000000000000004120000000000000000000000000000000000N10000921414242400000000000000000000MANOEL FRANCISCO FERREIRA                                                     R AL AMOR PERFEITO                                8-48                                    PQ VISTA ALEGRE               BAURU                                             SP17020480naotem@uol.com.br                                                          SERVIÇOS ODONTOLÓGICOS
20000106220200115000000        RPS       0000000000002020011500577280231002663000179F D M DOS SANTOS LOPES E AVELAR                                               RUA ALFREDO FONTAO                                2-73                                    JD. PAULISTA                  BAURU                                             SP17017240ilton@esolucao.net                                                         4         000000000000        000000000026167000000000000000004120000000000000000000000000000000000N10000351191283000000000000000000000ROBORE AFONSO DOS SANTOS                                                      RUA PIRATININGA                                   113                                     JD INDUSTRIAL                 BARIRI                                            SP17250000                                                                           SERVIÇOS ODONTOLÓGICOS
20000106120200115000000        RPS       0000000000002020011500577280231002663000179F D M DOS SANTOS LOPES E AVELAR                                               RUA ALFREDO FONTAO                                2-73                                    JD. PAULISTA                  BAURU                                             SP17017240ilton@esolucao.net                                                         4         000000000000        000000000027500000000000000000004120000000000000000000000000000000000N10001617633780100000000000000000000ADRIANE RANIERI SACATA                                                        RUA MARCONDES SALGADO                             1771                                    CENTRO                        BAURU                                             SP17010040                                                                           SERVIÇOS ODONTOLÓGICOS
20000105720200114000000        RPS       0000000000002020011400577280231002663000179F D M DOS SANTOS LOPES E AVELAR                                               RUA ALFREDO FONTAO                                2-73                                    JD. PAULISTA                  BAURU                                             SP17017240ilton@esolucao.net                                                         4         000000000000        000000000025000000000000000000004120000000000000000000000000000000000N10004626323189000000000000000000000LUANA BALE CARRILHO                                                           RUA JOSÉ FERREIRA KEFFER                          1-57                                    VILA PACÍFICO                 BAURU                                             SP17050350fabibale@hotmail.com                                                       SERVIÇOS ODONTOLÓGICOS
20000105820200114000000        RPS       0000000000002020011400577280231002663000179F D M DOS SANTOS LOPES E AVELAR                                               RUA ALFREDO FONTAO                                2-73                                    JD. PAULISTA                  BAURU                                             SP17017240ilton@esolucao.net                                                         4         000000000000        000000000035313000000000000000004120000000000000000000000000000000000N10007102299680000000000000000000000MARIA DE LOURDES ESQUEDA                                                      RUA JOAQUIM FIDELIS                               -58                                     VL.ALTINOPOLIS                BAURU                                             SP17012180maria@not.com                                                              SERVIÇOS ODONTOLÓGICOS
20000106020200114000000        RPS       0000000000002020011400577280231002663000179F D M DOS SANTOS LOPES E AVELAR                                               RUA ALFREDO FONTAO                                2-73                                    JD. PAULISTA                  BAURU                                             SP17017240ilton@esolucao.net                                                         4         000000000000        000000000040000000000000000000004120000000000000000000000000000000000N10000153008687600000000000000000000JOAO CARLOS RODRIGUES                                                         RUA DOS ELETRICISTAS, 2.25                        _         _                             GASPARINI                     BAURU                                             SP17022260                                                                           SERVIÇOS ODONTOLÓGICOS
20000105620200114000000        RPS       0000000000002020011400577280231002663000179F D M DOS SANTOS LOPES E AVELAR                                               RUA ALFREDO FONTAO                                2-73                                    JD. PAULISTA                  BAURU                                             SP17017240ilton@esolucao.net                                                         4         000000000000        000000000021605000000000000000004120000000000000000000000000000000000N10003291684680800000000000000000000ANA MARIA PEREIRA SAVIO                                                       RUA LUIZ SVIZZERO                                 3-116                                   JARDIM FLÓRIDA                BAURU                                             SP17024670                                                                           SERVIÇOS ODONTOLÓGICOS
20000105920200114000000        RPS       0000000000002020011400577280231002663000179F D M DOS SANTOS LOPES E AVELAR                                               RUA ALFREDO FONTAO                                2-73                                    JD. PAULISTA                  BAURU                                             SP17017240ilton@esolucao.net                                                         4         000000000000        000000000200000000000000000000004120000000000000000000000000000000000N10000865478481400000000000000000000CLEIDE TERESINHA GIROTTO RIBEIRO FRAGA                                        AV JORGE CHAMAS                                   1757                                    VL SAO SEBASTIAO              ITAPUÍ                                            SP17230000                                                                           SERVIÇOS ODONTOLÓGICOS
20000105520200113000000        RPS       0000000000002020011300577280231002663000179F D M DOS SANTOS LOPES E AVELAR                                               RUA ALFREDO FONTAO                                2-73                                    JD. PAULISTA                  BAURU                                             SP17017240ilton@esolucao.net                                                         4         000000000000        000000000016333000000000000000004120000000000000000000000000000000000N10002935480783600000000000000000000EMERSON FELIPE DA SILVA                                                       R:JOSE PEREIRA GUEDES                             6-55                                    PQ:PAULISTA                   BAURU                                             SP17031420tiemersonfelipe@gmail.com                                                  SERVIÇOS ODONTOLÓGICOS
20000104020200113000000        RPS       0000000000002020011300577280231002663000179F D M DOS SANTOS LOPES E AVELAR                                               RUA ALFREDO FONTAO                                2-73                                    JD. PAULISTA                  BAURU                                             SP17017240ilton@esolucao.net                                                         4         000000000000        000000000027500000000000000000004120000000000000000000000000000000000N10009830092089700000000000000000000MARIA ANIDELCE MESSIAS DE ALMEIDA                                             RUA GUSTAVO MACIEL                                3-372                                   JARDIM PAULISTA               BAURU                                             SP17017230anidelcealmeida@gmail.com                                                  SERVIÇOS ODONTOLÓGICOS
20000105320200113000000        RPS       0000000000002020011300577280231002663000179F D M DOS SANTOS LOPES E AVELAR                                               RUA ALFREDO FONTAO                                2-73                                    JD. PAULISTA                  BAURU                                             SP17017240ilton@esolucao.net                                                         4         000000000000        000000000180000000000000000000004120000000000000000000000000000000000N10001581852185000000000000000000000TOMADOR DE SERVICO DE ESTACIONAMENTO                                          NAO INFORMADO                                     SN        NAO INFORMADO                 NAO INFORMADO                 BAURU                                             SP00000000                                                                           SERVIÇOS ODONTOLÓGICOS
20000104820200113000000        RPS       0000000000002020011300577280231002663000179F D M DOS SANTOS LOPES E AVELAR                                               RUA ALFREDO FONTAO                                2-73                                    JD. PAULISTA                  BAURU                                             SP17017240ilton@esolucao.net                                                         4         000000000000        000000000125000000000000000000004120000000000000000000000000000000000N10003095464681900000000000000000000NELI XAVIER DALALIO                                                           AV PEDRO BERTOLINI 3-35                           .                                       MARAMBA                       BAURU                                             SP00000000financeiro@dirceudalpino.com.br                                            SERVIÇOS ODONTOLÓGICOS
20000104520200113000000        RPS       0000000000002020011300577280231002663000179F D M DOS SANTOS LOPES E AVELAR                                               RUA ALFREDO FONTAO                                2-73                                    JD. PAULISTA                  BAURU                                             SP17017240ilton@esolucao.net                                                         4         000000000000        000000000013417000000000000000004120000000000000000000000000000000000N10001476025487000000000000000000000CLARICE APARECIDA GONCALVES                                                   R ADIB ABUSSAMARA NEME                            2476                                    JD MARAJOARA                  PEDERNEIRAS                                       SP17280000clarice.goncalves@hotmail.com                                              SERVIÇOS ODONTOLÓGICOS
20000104720200113000000        RPS       0000000000002020011300577280231002663000179F D M DOS SANTOS LOPES E AVELAR                                               RUA ALFREDO FONTAO                                2-73                                    JD. PAULISTA                  BAURU                                             SP17017240ilton@esolucao.net                                                         4         000000000000        000000000020000000000000000000004120000000000000000000000000000000000N10004608770292000000000000000000000VALDIR FERREIRA                                                               RUA DOMINGOS NEREU PARISE                         129                                     SAO VICENTE                   HERVAL D'OESTE                                    SC89610000                                                                           SERVIÇOS ODONTOLÓGICOS
20000105120200113000000        RPS       0000000000002020011300577280231002663000179F D M DOS SANTOS LOPES E AVELAR                                               RUA ALFREDO FONTAO                                2-73                                    JD. PAULISTA                  BAURU                                             SP17017240ilton@esolucao.net                                                         4         000000000000        000000000040000000000000000000004120000000000000000000000000000000000N10001288207484000000000000000000000SOLANGE DE FATIMA CEZARINO RAFAEL                                             R CARMINI ÂNGELO DELICATO                         2-38                                    CONJUNTO HABITACIONAL ENGENHEIBAURU                                             SP17039000                                                                           SERVIÇOS ODONTOLÓGICOS
20000104620200113000000        RPS       0000000000002020011300577280231002663000179F D M DOS SANTOS LOPES E AVELAR                                               RUA ALFREDO FONTAO                                2-73                                    JD. PAULISTA                  BAURU                                             SP17017240ilton@esolucao.net                                                         4         000000000000        000000000102917000000000000000004120000000000000000000000000000000000N10009595440680400000000000000000000JOSE RODRIGUES DOS SANTOS                                                     R.LUIS FERNANDO DE B.ARANHA 4.53                  _         _                             JD. JACIRA                    BAURU                                             SP17021380                                                                           SERVIÇOS ODONTOLÓGICOS
20000104120200113000000        RPS       0000000000002020011300577280231002663000179F D M DOS SANTOS LOPES E AVELAR                                               RUA ALFREDO FONTAO                                2-73                                    JD. PAULISTA                  BAURU                                             SP17017240ilton@esolucao.net                                                         4         000000000000        000000000073242000000000000000004120000000000000000000000000000000000N10009590837484900000000000000000000DENIS ESTEVES MOLINA                                                          RUA IRMÃ ARMINDA                                  538                                     JARDIM BRASIL                 BAURU                                             SP17011160atendimento@tektron.com.br                                                 SERVIÇOS ODONTOLÓGICOS
20000104320200113000000        RPS       0000000000002020011300577280231002663000179F D M DOS SANTOS LOPES E AVELAR                                               RUA ALFREDO FONTAO                                2-73                                    JD. PAULISTA                  BAURU                                             SP17017240ilton@esolucao.net                                                         4         000000000000        000000000019633000000000000000004120000000000000000000000000000000000N10000398657580400000000000000000000SUELI PIAZZOL BONALDO DE SOUZA                                                RUA DEMETRIO ARIETA                               9-9                                     JARDIM DONA LILI              BAURU                                             SP17032530                                                                           SERVIÇOS ODONTOLÓGICOS
20000105420200113000000        RPS       0000000000002020011300577280231002663000179F D M DOS SANTOS LOPES E AVELAR                                               RUA ALFREDO FONTAO                                2-73                                    JD. PAULISTA                  BAURU                                             SP17017240ilton@esolucao.net                                                         4         000000000000        000000000050000000000000000000004120000000000000000000000000000000000N10001648721982700000000000000000000ADRIANA MENEGATI NAVARRO                                                      R AVIADOR MARQUES DE PINEDO                       13-60                                   PRQ JD EUROPA                 BAURU                                             SP17017460adriana.juliocesar@hotmail.com                                             SERVIÇOS ODONTOLÓGICOS
20000104220200113000000        RPS       0000000000002020011300577280231002663000179F D M DOS SANTOS LOPES E AVELAR                                               RUA ALFREDO FONTAO                                2-73                                    JD. PAULISTA                  BAURU                                             SP17017240ilton@esolucao.net                                                         4         000000000000        000000000019500000000000000000004120000000000000000000000000000000000N10008920346119100000000000000000000ANGELA CRISTINA PACHECO DE ALMEIDA                                            RUA ARLINDO FIDELIS                               11-110                                  JARDIM OURO VERDE             BAURU                                             SP17056040angelacarmelina@gmail.com                                                  SERVIÇOS ODONTOLÓGICOS
20000104420200113000000        RPS       0000000000002020011300577280231002663000179F D M DOS SANTOS LOPES E AVELAR                                               RUA ALFREDO FONTAO                                2-73                                    JD. PAULISTA                  BAURU                                             SP17017240ilton@esolucao.net                                                         4         000000000000        000000000026600000000000000000004120000000000000000000000000000000000N10001308310684000000000000000000000MARCO ANTONIO MORENO                                                          AMAPA                                             9-12                                    VILA CORALINA                 BAURU                                             SP17030010marcomoreno@bauru.sp.gov.br                                                SERVIÇOS ODONTOLÓGICOS
20000104920200113000000        RPS       0000000000002020011300577280231002663000179F D M DOS SANTOS LOPES E AVELAR                                               RUA ALFREDO FONTAO                                2-73                                    JD. PAULISTA                  BAURU                                             SP17017240ilton@esolucao.net                                                         4         000000000000        000000000065650000000000000000004120000000000000000000000000000000000N10004147311687200000000000000000000ANTONIO RENATO LOLO                                                           RUA ALBERTO TORRES                                6                                       BELA VISTA                    OSASCO                                            SP06060220lolo.renato@gmail.com                                                      SERVIÇOS ODONTOLÓGICOS
20000105220200113000000        RPS       0000000000002020011300577280231002663000179F D M DOS SANTOS LOPES E AVELAR                                               RUA ALFREDO FONTAO                                2-73                                    JD. PAULISTA                  BAURU                                             SP17017240ilton@esolucao.net                                                         4         000000000000        000000000103100000000000000000004120000000000000000000000000000000000N10000401245195200000000000000000000KATIANE ROBERTA LAROCA MILLEO DE SOUZA                                        RUA ANTONIO ALVES                                 25-25                                   VL STA TEREZA                 BAURU                                             SP17012060                                                                           SERVIÇOS ODONTOLÓGICOS
20000103920200113000000        RPS       0000000000002020011300577280231002663000179F D M DOS SANTOS LOPES E AVELAR                                               RUA ALFREDO FONTAO                                2-73                                    JD. PAULISTA                  BAURU                                             SP17017240ilton@esolucao.net                                                         4         000000000000        000000000010000000000000000000004120000000000000000000000000000000000N10003690452783800000000000000000000PRISCILA NOBREGA RODRIGUES DE LARA                                            RUA SEVERINO LINS, 6-60 BL. A AP. 31              0                                       VILA AVIACAO                  BAURU                                             SP17018600                                                                           SERVIÇOS ODONTOLÓGICOS
20000105020200113000000        RPS       0000000000002020011300577280231002663000179F D M DOS SANTOS LOPES E AVELAR                                               RUA ALFREDO FONTAO                                2-73                                    JD. PAULISTA                  BAURU                                             SP17017240ilton@esolucao.net                                                         4         000000000000        000000000110050000000000000000004120000000000000000000000000000000000N10004147311687200000000000000000000ANTONIO RENATO LOLO                                                           RUA ALBERTO TORRES                                6                                       BELA VISTA                    OSASCO                                            SP06060220lolo.renato@gmail.com                                                      SERVIÇOS ODONTOLÓGICOS
20000103820200110000000        RPS       0000000000002020011000577280231002663000179F D M DOS SANTOS LOPES E AVELAR                                               RUA ALFREDO FONTAO                                2-73                                    JD. PAULISTA                  BAURU                                             SP17017240ilton@esolucao.net                                                         4         000000000000        000000000100000000000000000000004120000000000000000000000000000000000N10002882619081000000000000000000000ANDREA CRISTINA PARRELA NEGRAO                                                2 AV FELICISSIMO ANTONIO PEREIRA                  15-008                                  JARDIM SOLANGE                BAURU                                             SP17054001                                                                           SERVIÇOS ODONTOLÓGICOS
20000103420200110000000        RPS       0000000000002020011000577280231002663000179F D M DOS SANTOS LOPES E AVELAR                                               RUA ALFREDO FONTAO                                2-73                                    JD. PAULISTA                  BAURU                                             SP17017240ilton@esolucao.net                                                         4         000000000000        000000000029167000000000000000004120000000000000000000000000000000000N10003412354384700000000000000000000VIVIAN ANDREA ANGELUCCI                                                       AVENIDA DUQUE DE CAXIAS                           24        85                            VILA CARDIA                   BAURU                                             SP17011066vvn_aa@yahoo.com.br                                                        SERVIÇOS ODONTOLÓGICOS
20000103620200110000000        RPS       0000000000002020011000577280231002663000179F D M DOS SANTOS LOPES E AVELAR                                               RUA ALFREDO FONTAO                                2-73                                    JD. PAULISTA                  BAURU                                             SP17017240ilton@esolucao.net                                                         4         000000000000        000000000023659000000000000000004120000000000000000000000000000000000N10001459776682000000000000000000000CRISTIANO MARTINS PRIETO                                                      R WENCESLAU BRAZ                                  7-28                                    VILA SOUTO                    BAURU                                             SP17051120nfse@netalfa.com.br                                                        SERVIÇOS ODONTOLÓGICOS
20000103520200110000000        RPS       0000000000002020011000577280231002663000179F D M DOS SANTOS LOPES E AVELAR                                               RUA ALFREDO FONTAO                                2-73                                    JD. PAULISTA                  BAURU                                             SP17017240ilton@esolucao.net                                                         4         000000000000        000000000051046000000000000000004120000000000000000000000000000000000N10000047812788000000000000000000000DEYSE CARDIA                                                                  AVENIDA COMENDADOR DANIEL PACIFICO                2-60                                    VILA MARTHA                   BAURU                                             SP17050145                                                                           SERVIÇOS ODONTOLÓGICOS
20000103720200110000000        RPS       0000000000002020011000577280231002663000179F D M DOS SANTOS LOPES E AVELAR                                               RUA ALFREDO FONTAO                                2-73                                    JD. PAULISTA                  BAURU                                             SP17017240ilton@esolucao.net                                                         4         000000000000        000000000038300000000000000000004120000000000000000000000000000000000N10003655963289000000000000000000000ADRIANO SOARES COELHO                                                         RUA ANTONIO GARCIA -                              16-52     AP 121                        JD BRASIL                     BAURU                                             SP17011190                                                                           SERVIÇOS ODONTOLÓGICOS
20000103120200109000000        RPS       0000000000002020010900577280231002663000179F D M DOS SANTOS LOPES E AVELAR                                               RUA ALFREDO FONTAO                                2-73                                    JD. PAULISTA                  BAURU                                             SP17017240ilton@esolucao.net                                                         4         000000000000        000000000035868000000000000000004120000000000000000000000000000000000N10003686598787000000000000000000000NATALIA REGINA MARTINS TONETTI                                                RUA MARA LUCIA VIEIRA                             S/N                                     VILA PELEGRINA                BAURU                                             SP17052250                                                                           SERVIÇOS ODONTOLÓGICOS
20000103220200109000000        RPS       0000000000002020010900577280231002663000179F D M DOS SANTOS LOPES E AVELAR                                               RUA ALFREDO FONTAO                                2-73                                    JD. PAULISTA                  BAURU                                             SP17017240ilton@esolucao.net                                                         4         000000000000        000000000031167000000000000000004120000000000000000000000000000000000N10003019196884600000000000000000000CRISTIAN MANOEL PEREIRA                                                       RUA PEDRO PAULO CHAVES                            74        QD 06                         TANGARÁS                      BAURU                                             SP17035240                                                                           SERVIÇOS ODONTOLÓGICOS
20000103320200109000000        RPS       0000000000002020010900577280231002663000179F D M DOS SANTOS LOPES E AVELAR                                               RUA ALFREDO FONTAO                                2-73                                    JD. PAULISTA                  BAURU                                             SP17017240ilton@esolucao.net                                                         4         000000000000        000000000203300000000000000000004120000000000000000000000000000000000N10002882619081000000000000000000000ANDREA CRISTINA PARRELA NEGRAO                                                2 AV FELICISSIMO ANTONIO PEREIRA                  15-008                                  JARDIM SOLANGE                BAURU                                             SP17054001                                                                           SERVIÇOS ODONTOLÓGICOS
20000102820200109000000        RPS       0000000000002020010900577280231002663000179F D M DOS SANTOS LOPES E AVELAR                                               RUA ALFREDO FONTAO                                2-73                                    JD. PAULISTA                  BAURU                                             SP17017240ilton@esolucao.net                                                         4         000000000000        000000000060341000000000000000004120000000000000000000000000000000000N10003151921485500000000000000000000LUIZ EDUARDO CALZE                                                            RUA HIROFUME FUSSAMAE                             3-66                                    JARDIM GAIVOTA                BAURU                                             SP17052470eduardocalze@gmail.com                                                     SERVIÇOS ODONTOLÓGICOS
20000103020200109000000        RPS       0000000000002020010900577280231002663000179F D M DOS SANTOS LOPES E AVELAR                                               RUA ALFREDO FONTAO                                2-73                                    JD. PAULISTA                  BAURU                                             SP17017240ilton@esolucao.net                                                         4         000000000000        000000000008333000000000000000004120000000000000000000000000000000000N10002819653189300000000000000000000VIVIANE HERRERA QUIRINO                                                       AV ADELIA FERNANDES FERREIRA                      590                                     SANTO ANTONIO                 PIRATININGA                                       SP17498380                                                                           SERVIÇOS ODONTOLÓGICOS
20000102920200109000000        RPS       0000000000002020010900577280231002663000179F D M DOS SANTOS LOPES E AVELAR                                               RUA ALFREDO FONTAO                                2-73                                    JD. PAULISTA                  BAURU                                             SP17017240ilton@esolucao.net                                                         4         000000000000        000000000016950000000000000000004120000000000000000000000000000000000N10002819653189300000000000000000000VIVIANE HERRERA QUIRINO                                                       AV ADELIA FERNANDES FERREIRA                      590                                     SANTO ANTONIO                 PIRATININGA                                       SP17498380                                                                           SERVIÇOS ODONTOLÓGICOS
20000102520200108000000        RPS       0000000000002020010800577280231002663000179F D M DOS SANTOS LOPES E AVELAR                                               RUA ALFREDO FONTAO                                2-73                                    JD. PAULISTA                  BAURU                                             SP17017240ilton@esolucao.net                                                         4         000000000000        000000000037415000000000000000004120000000000000000000000000000000000N10001283455587700000000000000000000ELIANE FERREIRA                                                               AVENIDA DAS BANDEIRAS                             35                                      VILA INDUSTRIAL               BAURU                                             SP17055455eli.eliane45@gmail.com                                                     SERVIÇOS ODONTOLÓGICOS
20000102720200108000000        RPS       0000000000002020010800577280231002663000179F D M DOS SANTOS LOPES E AVELAR                                               RUA ALFREDO FONTAO                                2-73                                    JD. PAULISTA                  BAURU                                             SP17017240ilton@esolucao.net                                                         4         000000000000        000000000041250000000000000000004120000000000000000000000000000000000N10000333745485200000000000000000000ROSAURA ELISELITA ROQUE                                                       RUA EDSON PEREIRA LEITE                           1147                                    PQ JARAGUA                    BAURU                                             SP17100000                                                                           SERVIÇOS ODONTOLÓGICOS
20000102620200108000000        RPS       0000000000002020010800577280231002663000179F D M DOS SANTOS LOPES E AVELAR                                               RUA ALFREDO FONTAO                                2-73                                    JD. PAULISTA                  BAURU                                             SP17017240ilton@esolucao.net                                                         4         000000000000        000000000013750000000000000000004120000000000000000000000000000000000N10001002795184700000000000000000000SORAYA SACATA                                                                 RUA SALVADOR FILARD                               14-60                                   BAIRRO SOUTO                  BAURU                                             SP00000000sorayafilard81@gmail.com                                                   SERVIÇOS ODONTOLÓGICOS
20000102220200107000000        RPS       0000000000002020010700577280231002663000179F D M DOS SANTOS LOPES E AVELAR                                               RUA ALFREDO FONTAO                                2-73                                    JD. PAULISTA                  BAURU                                             SP17017240ilton@esolucao.net                                                         4         000000000000        000000000020700000000000000000004120000000000000000000000000000000000N10000237438780100000000000000000000WALDEMIR DE SOUZA ROSA                                                        R SÃO GONÇALO                                     10-74     APTO. 31                      VILA ALTINÓPOLIS              BAURU                                             SP17012170waldemirrosa@bol.com.br                                                    SERVIÇOS ODONTOLÓGICOS
20000102320200107000000        RPS       0000000000002020010700577280231002663000179F D M DOS SANTOS LOPES E AVELAR                                               RUA ALFREDO FONTAO                                2-73                                    JD. PAULISTA                  BAURU                                             SP17017240ilton@esolucao.net                                                         4         000000000000        000000000021667000000000000000004120000000000000000000000000000000000N10000154327786100000000000000000000FERNANDO ANTONIO MACHADO MEDICE                                               RUA MARCONDES SALGADO, 17.71-AP.34 BLOCO 3        _         _                             VILA CARDIA                   BAURU                                             SP17013231                                                                           SERVIÇOS ODONTOLÓGICOS
20000102420200107000000        RPS       0000000000002020010700577280231002663000179F D M DOS SANTOS LOPES E AVELAR                                               RUA ALFREDO FONTAO                                2-73                                    JD. PAULISTA                  BAURU                                             SP17017240ilton@esolucao.net                                                         4         000000000000        000000000085900000000000000000004120000000000000000000000000000000000N10001704274885900000000000000000000NEUSA APARECIDA MENEZES                                                       AVENIDA CASTELO BRANCO                            38100                                   VILA IPIRANGA                 BAURU                                             SP17056000                                                                           SERVIÇOS ODONTOLÓGICOS
20000102020200106000000        RPS       0000000000002020010600577280231002663000179F D M DOS SANTOS LOPES E AVELAR                                               RUA ALFREDO FONTAO                                2-73                                    JD. PAULISTA                  BAURU                                             SP17017240ilton@esolucao.net                                                         4         000000000000        000000000027167000000000000000004120000000000000000000000000000000000N10001239926685400000000000000000000LYNDOM JPHNSON VICTOR NETO                                                    R ALBINO MALAQUINI                                117       CASA                          PQ SNT TEREZINHA              BAURU                                             SP17035494prjohnsonneto@hotmail.com                                                  SERVIÇOS ODONTOLÓGICOS
20000102120200106000000        RPS       0000000000002020010600577280231002663000179F D M DOS SANTOS LOPES E AVELAR                                               RUA ALFREDO FONTAO                                2-73                                    JD. PAULISTA                  BAURU                                             SP17017240ilton@esolucao.net                                                         4         000000000000        000000000027167000000000000000004120000000000000000000000000000000000N10001239926685400000000000000000000LYNDOM JPHNSON VICTOR NETO                                                    R ALBINO MALAQUINI                                117       CASA                          PQ SNT TEREZINHA              BAURU                                             SP17035494prjohnsonneto@hotmail.com                                                  SERVIÇOS ODONTOLÓGICOS
20000101920200106000000        RPS       0000000000002020010600577280231002663000179F D M DOS SANTOS LOPES E AVELAR                                               RUA ALFREDO FONTAO                                2-73                                    JD. PAULISTA                  BAURU                                             SP17017240ilton@esolucao.net                                                         4         000000000000        000000000015000000000000000000004120000000000000000000000000000000000N10000901491985900000000000000000000MARCIA APARECIDA GOMES DE AZEVEDO                                             R.PEDRO NUNES GOULART                             1-34                                    JOSE REGINO                   BAURU                                             SP17031701                                                                           SERVIÇOS ODONTOLÓGICOS
20000101820200106000000        RPS       0000000000002020010600577280231002663000179F D M DOS SANTOS LOPES E AVELAR                                               RUA ALFREDO FONTAO                                2-73                                    JD. PAULISTA                  BAURU                                             SP17017240ilton@esolucao.net                                                         4         000000000000        000000000014417000000000000000004120000000000000000000000000000000000N10000088651592000000000000000000000ROSELI FÁTIMA LUTIZ                                                           RUA DOUTOR WALTER BELIAN                          18-37                                   VILA SÃO JOÃO DO IPIRANGA     BAURU                                             SP17056070                                                                           SERVIÇOS ODONTOLÓGICOS
20000101520200103000000        RPS       0000000000002020010300577280231002663000179F D M DOS SANTOS LOPES E AVELAR                                               RUA ALFREDO FONTAO                                2-73                                    JD. PAULISTA                  BAURU                                             SP17017240ilton@esolucao.net                                                         4         000000000000        000000000025000000000000000000004120000000000000000000000000000000000N10001909640484000000000000000000000LUCIANA MOSCARDI GRILLO                                                       RUA TREZE DE MAIO                                 25-135                                  JARDIM ESTORIL IV             BAURU                                             SP17016170                                                                           SERVIÇOS ODONTOLÓGICOS
20000101620200103000000        RPS       0000000000002020010300577280231002663000179F D M DOS SANTOS LOPES E AVELAR                                               RUA ALFREDO FONTAO                                2-73                                    JD. PAULISTA                  BAURU                                             SP17017240ilton@esolucao.net                                                         4         000000000000        000000000030000000000000000000004120000000000000000000000000000000000N10002771094886300000000000000000000ADRIAN CRISTINA BERTO                                                         ALAMEDA COPÉRNICO                                 1156                                    PARQUE ROOSEVELT              BAURU                                             SP17064440                                                                           SERVIÇOS ODONTOLÓGICOS
20000101720200103000000        RPS       0000000000002020010300577280231002663000179F D M DOS SANTOS LOPES E AVELAR                                               RUA ALFREDO FONTAO                                2-73                                    JD. PAULISTA                  BAURU                                             SP17017240ilton@esolucao.net                                                         4         000000000000        000000000015000000000000000000004120000000000000000000000000000000000N10003092130782900000000000000000000KLEBER BARROS DA SILVA                                                        RUA LAZARO LUIZ ZAMENHOF                          1-14                                    NÚCLEO RESIDENCIAL PRESIDENTE BAURU                                             SP17033423                                                                           SERVIÇOS ODONTOLÓGICOS
20000101220200102000000        RPS       0000000000002020010200577280231002663000179F D M DOS SANTOS LOPES E AVELAR                                               RUA ALFREDO FONTAO                                2-73                                    JD. PAULISTA                  BAURU                                             SP17017240ilton@esolucao.net                                                         4         000000000000        000000000070000000000000000000004120000000000000000000000000000000000N10009616189280400000000000000000000MARIA DA GLÓRIA GUERRA                                                        RUA ALFREDO FONTÃO                                273                                     JARDIM PAULISTA               BAURU                                             SP17017240gloria.m.de@hotmail.cocm                                                   SERVIÇOS ODONTOLÓGICOS
20000099720200102000000        RPS       0000000000002020010200577280231002663000179F D M DOS SANTOS LOPES E AVELAR                                               RUA ALFREDO FONTAO                                2-73                                    JD. PAULISTA                  BAURU                                             SP17017240ilton@esolucao.net                                                         4         000000000000        000000000026667000000000000000004120000000000000000000000000000000000N10009830092089700000000000000000000MARIA ANIDELCE MESSIAS DE ALMEIDA                                             RUA GUSTAVO MACIEL                                3-372                                   JARDIM PAULISTA               BAURU                                             SP17017230anidelcealmeida@gmail.com                                                  SERVIÇOS ODONTOLÓGICOS
20000100820200102000000        RPS       0000000000002020010200577280231002663000179F D M DOS SANTOS LOPES E AVELAR                                               RUA ALFREDO FONTAO                                2-73                                    JD. PAULISTA                  BAURU                                             SP17017240ilton@esolucao.net                                                         4         000000000000        000000000032375000000000000000004120000000000000000000000000000000000N10002173189786300000000000000000000JUDITE COSTA PEREIRA                                                          RUA DOS ALFAIATES                                 1 72                                    NÚCLEO RESIDENCIAL EDISON BASTBAURU                                             SP17022420pereira.judy@ig.com.br                                                     SERVIÇOS ODONTOLÓGICOS
20000101420200102000000        RPS       0000000000002020010200577280231002663000179F D M DOS SANTOS LOPES E AVELAR                                               RUA ALFREDO FONTAO                                2-73                                    JD. PAULISTA                  BAURU                                             SP17017240ilton@esolucao.net                                                         4         000000000000        000000000070000000000000000000004120000000000000000000000000000000000N10009616189280400000000000000000000MARIA DA GLÓRIA GUERRA                                                        RUA ALFREDO FONTÃO                                273                                     JARDIM PAULISTA               BAURU                                             SP17017240gloria.m.de@hotmail.cocm                                                   SERVIÇOS ODONTOLÓGICOS
20000099820200102000000        RPS       0000000000002020010200577280231002663000179F D M DOS SANTOS LOPES E AVELAR                                               RUA ALFREDO FONTAO                                2-73                                    JD. PAULISTA                  BAURU                                             SP17017240ilton@esolucao.net                                                         4         000000000000        000000000023333000000000000000004120000000000000000000000000000000000N10001327572184400000000000000000000SARA ALVES DOS SANTOS PICOLO                                                  RUAALCIDIODOSSANTOS 50                            50                                      JARDIM JUNQUEIRA MEIRELES     PRESIDENTE ALVES                                  SP01667000marildoignacio123@gmail.com                                                SERVIÇOS ODONTOLÓGICOS
20000100920200102000000        RPS       0000000000002020010200577280231002663000179F D M DOS SANTOS LOPES E AVELAR                                               RUA ALFREDO FONTAO                                2-73                                    JD. PAULISTA                  BAURU                                             SP17017240ilton@esolucao.net                                                         4         000000000000        000000000010900000000000000000004120000000000000000000000000000000000N10003830452381700000000000000000000LENIZE VARGAS DOS SANTOS                                                      RUA JOAQUIM DA SILVA MARTHA, 23-24 AP 72-APT. 72  23-24                                   VILA NOVA CIDADE UNIVERSITÁRIABAURU                                             SP17012225lenize_vargas@hotmail.com                                                  SERVIÇOS ODONTOLÓGICOS
20000101320200102000000        RPS       0000000000002020010200577280231002663000179F D M DOS SANTOS LOPES E AVELAR                                               RUA ALFREDO FONTAO                                2-73                                    JD. PAULISTA                  BAURU                                             SP17017240ilton@esolucao.net                                                         4         000000000000        000000000070000000000000000000004120000000000000000000000000000000000N10009616189280400000000000000000000MARIA DA GLÓRIA GUERRA                                                        RUA ALFREDO FONTÃO                                273                                     JARDIM PAULISTA               BAURU                                             SP17017240gloria.m.de@hotmail.cocm                                                   SERVIÇOS ODONTOLÓGICOS
20000101120200102000000        RPS       0000000000002020010200577280231002663000179F D M DOS SANTOS LOPES E AVELAR                                               RUA ALFREDO FONTAO                                2-73                                    JD. PAULISTA                  BAURU                                             SP17017240ilton@esolucao.net                                                         4         000000000000        000000000011100000000000000000004120000000000000000000000000000000000N10003367388688600000000000000000000TABATA FAVEIRA RUAS                                                           RUA JOSÉ FRANCISCO DOS SANTOS                     258                                     VL HONORINA                   AGUDOS                                            SP17120000tabatataveira@yahoo.com.br                                                 SERVIÇOS ODONTOLÓGICOS
20000100720190106000000        RPS       0000000000002019010600577280231002663000179F D M DOS SANTOS LOPES E AVELAR                                               RUA ALFREDO FONTAO                                2-73                                    JD. PAULISTA                  BAURU                                             SP17017240ilton@esolucao.net                                                         4         000000000000        000000000014417000000000000000004120000000000000000000000000000000000N10000088651592000000000000000000000ROSELI FÁTIMA LUTIZ                                                           RUA DOUTOR WALTER BELIAN                          18-37                                   VILA SÃO JOÃO DO IPIRANGA     BAURU                                             SP17056070                                                                           SERVIÇOS ODONTOLÓGICOS
20000101020190102000000        RPS       0000000000002019010200577280231002663000179F D M DOS SANTOS LOPES E AVELAR                                               RUA ALFREDO FONTAO                                2-73                                    JD. PAULISTA                  BAURU                                             SP17017240ilton@esolucao.net                                                         4         000000000000        000000000010850000000000000000004120000000000000000000000000000000000N10001366309383200000000000000000000LEILA CRISTINA PICOLO BASSI                                                   RUA NATAL PICOLO                                  1-99                                    BICA DE PEDRA                 ITAPUÍ                                            SP17230000                                                                           SERVIÇOS ODONTOLÓGICOS
90000095000000004892492000000000000000000000000000000000000000000000
