1001000000002019040320190430
20000230720190430152146        RPS       0000000000002019043000000000227403315000136                                                                                                                                                                                                      Agrolândia                                        SC00000000                                                                           0         000000000000        000000000040400000000000000000004120000000000000000000000000000000000N10006783050190400000000000000000000MARGARETE APARECIDA SOUZA                                                                                                                                               Gabiroba                      ITUPORANGA                                          88400000                                                                           
20000230620190430152114        RPS       0000000000002019043000000000227403315000136                                                                                                                                                                                                      Agrolândia                                        SC00000000                                                                           0         000000000000        000000000021877000000000000000004120000000000000000000000000000000000N10007158448096300000000000000000000VALY TUMMLER KRAUSE                                                                                                                                                     CENTRO                        ATALANTA                                            88410000                                                                           
20000230520190430152041        RPS       0000000000002019043000000000227403315000136                                                                                                                                                                                                      Agrolândia                                        SC00000000                                                                           0         000000000000        000000000031400000000000000000004120000000000000000000000000000000000N10001266341692400000000000000000000DEIVIT ROLING                                                                                                                                                           CENTRO                        AGROLANDIA                                          88420000                                                                           
20000230420190430152009        RPS       0000000000002019043000000000227403315000136                                                                                                                                                                                                      Agrolândia                                        SC00000000                                                                           0         000000000000        000000000049127000000000000000004120000000000000000000000000000000000N10008455300698700000000000000000000MARILEI FORSTER                                                                                                                                                         IPIRANGA                      AGROLANDIA                                          88420000                                                                           
20000230320190430145502        RPS       0000000000002019043000000000227403315000136                                                                                                                                                                                                      Agrolândia                                        SC00000000                                                                           0         000000000000        000000000025067000000000000000004120000000000000000000000000000000000N20000674989090300000000000000000000SILVIA FERNANDA CANTOVICK                                                                                                                                                                             ITUPORANGA                                          00000000                                                                           
20000230220190430145256        RPS       0000000000002019043000000000227403315000136                                                                                                                                                                                                      Agrolândia                                        SC00000000                                                                           0         000000000000        000000000028986000000000000000004120000000000000000000000000000000000N20000148245790300000000000000000000MAURICIO REINHOLD                                                                                                                                                                                     RIO DO SUL                                          00000000                                                                           
20000230120190430145220        RPS       0000000000002019043000000000227403315000136                                                                                                                                                                                                      Agrolândia                                        SC00000000                                                                           0         000000000000        000000000047400000000000000000004120000000000000000000000000000000000N10001046257196300000000000000000000LUCAS MADALENA                                                                                                                            vazio                         CENTRO                        ATALANTA                                            88410000                                                                           
20000230020190430145146        RPS       0000000000002019043000000000227403315000136                                                                                                                                                                                                      Agrolândia                                        SC00000000                                                                           0         000000000000        000000000035971000000000000000004120000000000000000000000000000000000N10001208863894600000000000000000000LUANA ZEFERINO                                                                                                                                                          CENTRO                        AGROLANDIA                                          88420000                                                                           
20000229920190430145110        RPS       0000000000002019043000000000227403315000136                                                                                                                                                                                                      Agrolândia                                        SC00000000                                                                           0         000000000000        000000000050185000000000000000004120000000000000000000000000000000000N20000167022393000000000000000000000SILVANA REBLIN SILVA                                                                                                                                                    CENTRO                        AGROLANDIA                                          88420000                                                                           
20000229820190430145035        RPS       0000000000002019043000000000227403315000136                                                                                                                                                                                                      Agrolândia                                        SC00000000                                                                           0         000000000000        000000000018850000000000000000004120000000000000000000000000000000000N20000888820895000000000000000000000Eduan da Silva Miranda                                                                                                                                                  CENTRO                        AGROLANDIA                                          88420000                                                                           
20000229720190430144954        RPS       0000000000002019043000000000227403315000136                                                                                                                                                                                                      Agrolândia                                        SC00000000                                                                           0         000000000000        000000000012299000000000000000004120000000000000000000000000000000000N20000288184696300000000000000000000JOAO CARLOS SANGALETTI                                                                                                                                                  RIO BONITO II                 AGROLANDIA                                          88420000                                                                           
20000229620190430144913        RPS       0000000000002019043000000000227403315000136                                                                                                                                                                                                      Agrolândia                                        SC00000000                                                                           0         000000000000        000000000132766000000000000000004120000000000000000000000000000000000N20000474543196100000000000000000000CHISLENE PINTO                                                                                                                                                          DIVERSOS                      RIO DO SUL                                          89160000                                                                           
20000229520190430144839        RPS       0000000000002019043000000000227403315000136                                                                                                                                                                                                      Agrolândia                                        SC00000000                                                                           0         000000000000        000000000032648000000000000000004120000000000000000000000000000000000N20000912993995000000000000000000000Jaine Kussner                                                                                                                                                           Sao Joao                      AGROLANDIA                                          88420000ass.academica@famesul.com.br                                               
20000229420190430144757        RPS       0000000000002019043000000000227403315000136                                                                                                                                                                                                      Agrolândia                                        SC00000000                                                                           0         000000000000        000000000015757000000000000000004120000000000000000000000000000000000N20000895175290900000000000000000000ANDRESSA DAIANE DE SOUZA                                                                                                                                                Centro                        AGROLANDIA                                          88420000                                                                           
20000229320190430144640        RPS       0000000000002019043000000000227403315000136                                                                                                                                                                                                      Agrolândia                                        SC00000000                                                                           0         000000000000        000000000031400000000000000000004120000000000000000000000000000000000N20000713389990600000000000000000000DAIANE NECKEL BAUER                                                                                                                                                     IPIRANGA                      AGROLANDIA                                          88420000                                                                           
20000229220190430144607        RPS       0000000000002019043000000000227403315000136                                                                                                                                                                                                      Agrolândia                                        SC00000000                                                                           0         000000000000        000000000022900000000000000000004120000000000000000000000000000000000N20000843332395400000000000000000000JACIARA ROLING                                                                                                                                                          CENTRO                        AGROLANDIA                                          88420000                                                                           
20000229120190430144535        RPS       0000000000002019043000000000227403315000136                                                                                                                                                                                                      Agrolândia                                        SC00000000                                                                           0         000000000000        000000000018956000000000000000004120000000000000000000000000000000000N20000974228192000000000000000000000Eliane Jenifer Dela Justina                                                                                                                                             Sao Joao                      ATALANTA                                            88410000                                                                           
20000229020190430144459        RPS       0000000000002019043000000000227403315000136                                                                                                                                                                                                      Agrolândia                                        SC00000000                                                                           0         000000000000        000000000012000000000000000000004120000000000000000000000000000000000N10003222516081300000000000000000000DANUSA DAL RI PRATES ALVES                                                                                                                                              CENTRO                        AGROLANDIA                                          08842000                                                                           
20000228920190430144426        RPS       0000000000002019043000000000227403315000136                                                                                                                                                                                                      Agrolândia                                        SC00000000                                                                           0         000000000000        000000000034650000000000000000004120000000000000000000000000000000000N20000586200797000000000000000000000Tania da Silva Schug                                                                                                                                                    Ipiranga                      AGROLANDIA                                          88420000                                                                           
20000228820190430144350        RPS       0000000000002019043000000000227403315000136                                                                                                                                                                                                      Agrolândia                                        SC00000000                                                                           0         000000000000        000000000057547000000000000000004120000000000000000000000000000000000N10008510683697200000000000000000000JUCARA GADOTTI                                                                                                                            casa sn                       Sabugueiro                    TROMBUDO CENTRAL                                    89176000                                                                           
20000228720190430144302        RPS       0000000000002019043000000000227403315000136                                                                                                                                                                                                      Agrolândia                                        SC00000000                                                                           0         000000000000        000000000022900000000000000000004120000000000000000000000000000000000N10001222292092200000000000000000000EMILIANA MAYER MARANGONI                                                                                                                                                SERRA DOS ALVES               AGROLANDIA                                          88420000                                                                           
20000228620190430144227        RPS       0000000000002019043000000000227403315000136                                                                                                                                                                                                      Agrolândia                                        SC00000000                                                                           0         000000000000        000000000035935000000000000000004120000000000000000000000000000000000N20000475164296000000000000000000000JANICE CHIQUETTI                                                                                                                                                        centro                        AGROLANDIA                                          88420000                                                                           
20000228520190430144148        RPS       0000000000002019043000000000227403315000136                                                                                                                                                                                                      Agrolândia                                        SC00000000                                                                           0         000000000000        000000000015481000000000000000004120000000000000000000000000000000000N20000645619493800000000000000000000Jessica Vetter                                                                                                                                                          centro                        BRACO DO TROMBUDO                                   89178000                                                                           
20000228420190430144109        RPS       0000000000002019043000000000227403315000136                                                                                                                                                                                                      Agrolândia                                        SC00000000                                                                           0         000000000000        000000000050220000000000000000004120000000000000000000000000000000000N20000600570398600000000000000000000ROSELIA DA LUZ CORREIA                                                                                                                                                  ESTRADA GERAL                 AGROLANDIA                                          88420000                                                                           
20000228320190430144032        RPS       0000000000002019043000000000227403315000136                                                                                                                                                                                                      Agrolândia                                        SC00000000                                                                           0         000000000000        000000000022500000000000000000004120000000000000000000000000000000000N20000564953997900000000000000000000LUIZ ROBERTO SCHUG                                                                                                                                                      CENTRO                        AGROLANDIA                                          88420000                                                                           
20000228220190430143952        RPS       0000000000002019043000000000227403315000136                                                                                                                                                                                                      Agrolândia                                        SC00000000                                                                           0         000000000000        000000000153323000000000000000004120000000000000000000000000000000000N10009332713790000000000000000000000SIMONE TERESINHA WALTRICK                                                                                                                                               Vila Nova                     TROMBUDO CENTRAL                                    89176000                                                                           
20000228120190430143919        RPS       0000000000002019043000000000227403315000136                                                                                                                                                                                                      Agrolândia                                        SC00000000                                                                           0         000000000000        000000000017435000000000000000004120000000000000000000000000000000000N20000465978797400000000000000000000EDILCE SCHMITZ                                                                                                                            LOTEAMENTO CANARINHO          CENTRO                        AGROLANDIA                                          88420000                                                                           
20000228020190430143842        RPS       0000000000002019043000000000227403315000136                                                                                                                                                                                                      Agrolândia                                        SC00000000                                                                           0         000000000000        000000000021525000000000000000004120000000000000000000000000000000000N20000678227195800000000000000000000ALINE SCHULLER                                                                                                                            casa                          Estrada Geral                 AGROLANDIA                                          88420000aline.agroecologia@gmail.com                                               
20000227920190430143806        RPS       0000000000002019043000000000227403315000136                                                                                                                                                                                                      Agrolândia                                        SC00000000                                                                           0         000000000000        000000000067066000000000000000004120000000000000000000000000000000000N20000730388190500000000000000000000EVERSON GOITES CORREA                                                                                                                                                   SAO JOAO                      AGROLANDIA                                          88420000                                                                           
20000227820190430143727        RPS       0000000000002019043000000000227403315000136                                                                                                                                                                                                      Agrolândia                                        SC00000000                                                                           0         000000000000        000000000051208000000000000000004120000000000000000000000000000000000N20000774973692100000000000000000000CLEVERSON CARNEIRO                                                                                                                                                      IPIRANGA                      AGROLANDIA                                          88420000                                                                           
20000227720190430143635        RPS       0000000000002019043000000000227403315000136                                                                                                                                                                                                      Agrolândia                                        SC00000000                                                                           0         000000000000        000000000041678000000000000000004120000000000000000000000000000000000N10006565336091000000000000000000000ADEMAR VIEIRA                                                                                                                             CASA                          CENTRO                        ATALANTA                                            88410000                                                                           
20000227620190430143556        RPS       0000000000002019043000000000227403315000136                                                                                                                                                                                                      Agrolândia                                        SC00000000                                                                           0         000000000000        000000000013557000000000000000004120000000000000000000000000000000000N10007899879493400000000000000000000REINTRAUD HEDEL KUSSNER                                                                                                                                                 CENTRO                        AGROLANDIA                                          88420000                                                                           
20000227520190430143516        RPS       0000000000002019043000000000227403315000136                                                                                                                                                                                                      Agrolândia                                        SC00000000                                                                           0         000000000000        000000000023733000000000000000004120000000000000000000000000000000000N10009486474893400000000000000000000RENATA STAROSKY KUNZ                                                                                                                                                    EST. GERAL SANTO ANTONIO      ATALANTA                                            88410000                                                                           
20000227420190430143438        RPS       0000000000002019043000000000227403315000136                                                                                                                                                                                                      Agrolândia                                        SC00000000                                                                           0         000000000000        000000000016313000000000000000004120000000000000000000000000000000000N20000243672993000000000000000000000LINDOMAR BARROS                                                                                                                                                         SAO JOCAO                     AGROLANDIA                                          88420000                                                                           
20000227320190430143350        RPS       0000000000002019043000000000227403315000136                                                                                                                                                                                                      Agrolândia                                        SC00000000                                                                           0         000000000000        000000000038190000000000000000004120000000000000000000000000000000000N20000895222299700000000000000000000Thieri Claudio Heinz                                                                                                                      casa                          TRES BARRAS                   AGROLANDIA                                          88420000                                                                           
20000227220190430143312        RPS       0000000000002019043000000000227403315000136                                                                                                                                                                                                      Agrolândia                                        SC00000000                                                                           0         000000000000        000000000102448000000000000000004120000000000000000000000000000000000N10006469809294900000000000000000000RITA METZLER COSTA                                                                                                                        APTO B45                      CENTRO                        AGROLANDIA                                          88420000                                                                           
20000227120190430143239        RPS       0000000000002019043000000000227403315000136                                                                                                                                                                                                      Agrolândia                                        SC00000000                                                                           0         000000000000        000000000020505000000000000000004120000000000000000000000000000000000N20000983896992300000000000000000000JANAINA DOS SANTOS                                                                                                                                                      TRES BARRAS                   AGROLANDIA                                          88420000                                                                           
20000227020190430142831        RPS       0000000000002019043000000000227403315000136                                                                                                                                                                                                      Agrolândia                                        SC00000000                                                                           0         000000000000        000000000015854000000000000000004120000000000000000000000000000000000N10001021733296000000000000000000000CRISTIAN GABRIEL SCHNEIDER                                                                                                                                              SAO JOAO                      AGROLANDIA                                          88420000                                                                           
20000226920190430142755        RPS       0000000000002019043000000000227403315000136                                                                                                                                                                                                      Agrolândia                                        SC00000000                                                                           0         000000000000        000000000034126000000000000000004120000000000000000000000000000000000N20000559234392200000000000000000000CLEUSA DE LIMA DA SILVA                                                                                                                   CASA                          CENTRO                        AGROLANDIA                                          88420000                                                                           
20000226820190430142624        RPS       0000000000002019043000000000227403315000136                                                                                                                                                                                                      Agrolândia                                        SC00000000                                                                           0         000000000000        000000000094000000000000000000004120000000000000000000000000000000000N20000045874492100000000000000000000RENALDO LINDOR SCHNEIDER                                                                                                                                                ALTO SAO JOAO                 AGROLANDIA                                          88420000                                                                           
20000226720190430142553        RPS       0000000000002019043000000000227403315000136                                                                                                                                                                                                      Agrolândia                                        SC00000000                                                                           0         000000000000        000000000021584000000000000000004120000000000000000000000000000000000N20000957135696400000000000000000000JOEL FRANCO BETTA                                                                                                                                                       SIEGEL                        AGROLANDIA                                          88420000joel_betta@aluno.sc.senai.br                                               
20000226620190430142519        RPS       0000000000002019043000000000227403315000136                                                                                                                                                                                                      Agrolândia                                        SC00000000                                                                           0         000000000000        000000000023641000000000000000004120000000000000000000000000000000000N20000735360596000000000000000000000JAMES JEAN MANTAU                                                                                                                                                       ribeirao gessert              DONA EMMA                                           89155000jamesjeanmantau@icloud.com                                                 
20000226520190430142444        RPS       0000000000002019043000000000227403315000136                                                                                                                                                                                                      Agrolândia                                        SC00000000                                                                           0         000000000000        000000000017046000000000000000004120000000000000000000000000000000000N20000969023499400000000000000000000MARCELO KRIESER                                                                                                                                                         RIBEIRï¿½O DO TIGRE           AGROLANDIA                                          88420000                                                                           
20000226420190430142338        RPS       0000000000002019043000000000227403315000136                                                                                                                                                                                                      Agrolândia                                        SC00000000                                                                           0         000000000000        000000000021400000000000000000004120000000000000000000000000000000000N10007769462797200000000000000000000BRUNO FUCHTER                                                                                                                                                           CENTRO                        AGROLANDIA                                          88420000                                                                           
20000226320190430142254        RPS       0000000000002019043000000000227403315000136                                                                                                                                                                                                      Agrolândia                                        SC00000000                                                                           0         000000000000        000000000026900000000000000000004120000000000000000000000000000000000N20000853508399500000000000000000000QUESI VIVIANE MORAES DE SOUZA                                                                                                             CASA                          SAO JOAO                      AGROLANDIA                                          88420000                                                                           
20000226220190429172021        RPS       0000000000002019042900000000227403315000136                                                                                                                                                                                                      Agrolândia                                        SC00000000                                                                           0         000000000000        000000000017491000000000000000004120000000000000000000000000000000000N20000245926798300000000000000000000JAIME TUMMLER                                                                                                                                                           INTERIOR                      ATALANTA                                            88410000                                                                           
20000226120190429171945        RPS       0000000000002019042900000000227403315000136                                                                                                                                                                                                      Agrolândia                                        SC00000000                                                                           0         000000000000        000000000016574000000000000000004120000000000000000000000000000000000N20000036128490000000000000000000000GIOVANI ALVES DE ANDRADE                                                                                                                                                DIVERSOS                      RIO DO SUL                                          89160000                                                                           
20000226020190429171913        RPS       0000000000002019042900000000227403315000136                                                                                                                                                                                                      Agrolândia                                        SC00000000                                                                           0         000000000000        000000000019273000000000000000004120000000000000000000000000000000000N20000576725994100000000000000000000ELAENE ESSER                                                                                                                                                            Serra dos Alves               AGROLANDIA                                          88420000                                                                           
20000225920190429171842        RPS       0000000000002019042900000000227403315000136                                                                                                                                                                                                      Agrolândia                                        SC00000000                                                                           0         000000000000        000000000101920000000000000000004120000000000000000000000000000000000N20000867873795600000000000000000000Braian Mateus Correa                                                                                                                                                    tres barras                   AGROLANDIA                                          88420000                                                                           
20000225820190429171801        RPS       0000000000002019042900000000227403315000136                                                                                                                                                                                                      Agrolândia                                        SC00000000                                                                           0         000000000000        000000000020400000000000000000004120000000000000000000000000000000000N20000697484599500000000000000000000ADRIELI DA SILVA                                                                                                                                                        SAO JOAO                      AGROLANDIA                                          88420000adrieli.adv@gmail.com                                                      
20000225720190429171727        RPS       0000000000002019042900000000227403315000136                                                                                                                                                                                                      Agrolândia                                        SC00000000                                                                           0         000000000000        000000000028900000000000000000004120000000000000000000000000000000000N20000282535497000000000000000000000CLAUDETE CORREA                                                                                                                           CASA                          RIO TROMBUDO                  AGROLANDIA                                          88420000                                                                           
20000225620190429171651        RPS       0000000000002019042900000000227403315000136                                                                                                                                                                                                      Agrolândia                                        SC00000000                                                                           0         000000000000        000000000040220000000000000000004120000000000000000000000000000000000N10001254239596900000000000000000000KALANY PATRICIA FERREIRA                                                                                                                  CASA                          SIEGEL                        AGROLANDIA                                          88420000                                                                           
20000225520190429171605        RPS       0000000000002019042900000000227403315000136                                                                                                                                                                                                      Agrolândia                                        SC00000000                                                                           0         000000000000        000000000034300000000000000000004120000000000000000000000000000000000N10001089420498000000000000000000000SUELLEN JAQUELINE DE SOUZA                                                                                                                                                                            RIO DO SUL                                          00000000                                                                           
20000225420190429171231        RPS       0000000000002019042900000000227403315000136                                                                                                                                                                                                      Agrolândia                                        SC00000000                                                                           0         000000000000        000000000043067000000000000000004120000000000000000000000000000000000N20000121550893000000000000000000000Daniela Fernandes                                                                                                                         Casa                          Centro                        AGROLANDIA                                          88420000                                                                           
20000225320190429171151        RPS       0000000000002019042900000000227403315000136                                                                                                                                                                                                      Agrolândia                                        SC00000000                                                                           0         000000000000        000000000020848000000000000000004120000000000000000000000000000000000N20000399697098600000000000000000000CASSIO FERNANDO SEBOLD                                                                                                                                                  NSANTO ANTONIO                ATALANTA                                            88410000                                                                           
20000225220190429171105        RPS       0000000000002019042900000000227403315000136                                                                                                                                                                                                      Agrolândia                                        SC00000000                                                                           0         000000000000        000000000039864000000000000000004120000000000000000000000000000000000N10001021958298000000000000000000000WILHAN CESAR ANDRADE ALVES                                                                                                                                              SERRA DOS ALVES               AGROLANDIA                                          88420000                                                                           
20000225120190429171029        RPS       0000000000002019042900000000227403315000136                                                                                                                                                                                                      Agrolândia                                        SC00000000                                                                           0         000000000000        000000000022066000000000000000004120000000000000000000000000000000000N20000652993591600000000000000000000RAFAEL MAFIOLETTI                                                                                                                         ap05                          CANOAS                        RIO DO SUL                                          89164081                                                                           
20000225020190429170951        RPS       0000000000002019042900000000227403315000136                                                                                                                                                                                                      Agrolândia                                        SC00000000                                                                           0         000000000000        000000000019083000000000000000004120000000000000000000000000000000000N20000686581490800000000000000000000ELIANE KOHL BRANCO                                                                                                                                                      Rio Bonito                    AGROLANDIA                                          88420000                                                                           
20000224920190429170911        RPS       0000000000002019042900000000227403315000136                                                                                                                                                                                                      Agrolândia                                        SC00000000                                                                           0         000000000000        000000000026114000000000000000004120000000000000000000000000000000000N10001001574397700000000000000000000Ariel Jochem                                                                                                                                                            Sï¿½o Miguel                  ATALANTA                                            88410000                                                                           
20000224820190429170811        RPS       0000000000002019042900000000227403315000136                                                                                                                                                                                                      Agrolândia                                        SC00000000                                                                           0         000000000000        000000000041289000000000000000004120000000000000000000000000000000000N20000750626399800000000000000000000Joao Antonio Pereira                                                                                                                                                    Ribeirï¿½o Cafe               TROMBUDO CENTRAL                                    89176000                                                                           
20000224720190429170725        RPS       0000000000002019042900000000227403315000136                                                                                                                                                                                                      Agrolândia                                        SC00000000                                                                           0         000000000000        000000000038567000000000000000004120000000000000000000000000000000000N10001019343290000000000000000000000DEMILSON CLEITON STAROSKI                                                                                                                                               CENTRO                        AGROLANDIA                                          88420000                                                                           
20000224620190429170100        RPS       0000000000002019042900000000227403315000136                                                                                                                                                                                                      Agrolândia                                        SC00000000                                                                           0         000000000000        000000000007887000000000000000004120000000000000000000000000000000000N20000541723790600000000000000000000JANAINA CLASEN                                                                                                                                                                                        RIO DO SUL                                          00000000                                                                           
20000224520190429170014        RPS       0000000000002019042900000000227403315000136                                                                                                                                                                                                      Agrolândia                                        SC00000000                                                                           0         000000000000        000000000010553000000000000000004120000000000000000000000000000000000N20000444682791000000000000000000000FABIANO JUNIOR BURATO                                                                                                                                                   N/I                           ATALANTA                                            88410000                                                                           
20000224420190429164437        RPS       0000000000002019042900000000227403315000136                                                                                                                                                                                                      Agrolândia                                        SC00000000                                                                           0         000000000000        000000000024300000000000000000004120000000000000000000000000000000000N20000121576299200000000000000000000RAFAEL ALEXANDRO BRAATZ                                                                                                                   CASA                          RIO TROMBUDO                  AGROLANDIA                                          88420000                                                                           
20000224320190429163221        RPS       0000000000002019042900000000227403315000136                                                                                                                                                                                                      Agrolândia                                        SC00000000                                                                           0         000000000000        000000000037912000000000000000004120000000000000000000000000000000000N20000895222299700000000000000000000Thieri Claudio Heinz                                                                                                                      casa                          TRES BARRAS                   AGROLANDIA                                          88420000                                                                           
20000224220190429162849        RPS       0000000000002019042900000000227403315000136                                                                                                                                                                                                      Agrolândia                                        SC00000000                                                                           0         000000000000        000000000026600000000000000000004120000000000000000000000000000000000N20000461501597600000000000000000000LUCIANO DA SILVA GEREMIAS                                                                                                                                               CENTRO                        AGROLANDIA                                          88420000                                                                           
20000224120190429162753        RPS       0000000000002019042900000000227403315000136                                                                                                                                                                                                      Agrolândia                                        SC00000000                                                                           0         000000000000        000000000056600000000000000000004120000000000000000000000000000000000N20000349318794700000000000000000000JAISSON TESTONI                                                                                                                           LOTEAMENTO CANARINHO          CENTRO                        AGROLANDIA                                          88420000                                                                           
20000224020190429162719        RPS       0000000000002019042900000000227403315000136                                                                                                                                                                                                      Agrolândia                                        SC00000000                                                                           0         000000000000        000000000015500000000000000000004120000000000000000000000000000000000N10006933878791500000000000000000000ROSINEIA VIEIRA                                                                                                                                                         RUA SAO JOAO                  AGROLANDIA                                          88420000                                                                           
20000223920190429162644        RPS       0000000000002019042900000000227403315000136                                                                                                                                                                                                      Agrolândia                                        SC00000000                                                                           0         000000000000        000000000055511000000000000000004120000000000000000000000000000000000N20000716672898100000000000000000000Fernando da Silva                                                                                                                                                       Centro                        ATALANTA                                            88410000fernando_eng@hotmail.com                                                   
20000223820190429162607        RPS       0000000000002019042900000000227403315000136                                                                                                                                                                                                      Agrolândia                                        SC00000000                                                                           0         000000000000        000000000057192000000000000000004120000000000000000000000000000000000N10009486474893400000000000000000000RENATA STAROSKY KUNZ                                                                                                                                                    EST. GERAL SANTO ANTONIO      ATALANTA                                            88410000                                                                           
20000223720190429162529        RPS       0000000000002019042900000000227403315000136                                                                                                                                                                                                      Agrolândia                                        SC00000000                                                                           0         000000000000        000000000026436000000000000000004120000000000000000000000000000000000N20000411789295900000000000000000000GEISI EISELER                                                                                                                                                           CENTRO                        ATALANTA                                            88410000                                                                           
20000223620190429162448        RPS       0000000000002019042900000000227403315000136                                                                                                                                                                                                      Agrolândia                                        SC00000000                                                                           0         000000000000        000000000331100000000000000000004120000000000000000000000000000000000N20000317958895000000000000000000000SONIA RASSWEILER                                                                                                                                                        IPIRANGA                      AGROLANDIA                                          88420000                                                                           
20000223520190429162406        RPS       0000000000002019042900000000227403315000136                                                                                                                                                                                                      Agrolândia                                        SC00000000                                                                           0         000000000000        000000000017645000000000000000004120000000000000000000000000000000000N10001050751493900000000000000000000GABRIELA PROCHNOW                                                                                                                                                       ALTO DONA LUIZA               ATALANTA                                            88410000                                                                           
20000223420190429162038        RPS       0000000000002019042900000000227403315000136                                                                                                                                                                                                      Agrolândia                                        SC00000000                                                                           0         000000000000        000000000116614000000000000000004120000000000000000000000000000000000N20000222508892600000000000000000000ELIZIANI RAMOS DE OLIVEIRA                                                                                                                                              CERRO NEGRO                   ITUPORANGA                                          88400000                                                                           
20000223320190429161956        RPS       0000000000002019042900000000227403315000136                                                                                                                                                                                                      Agrolândia                                        SC00000000                                                                           0         000000000000        000000000014457000000000000000004120000000000000000000000000000000000N20000487688490000000000000000000000ROZILENE XAVIER HEIDERSCHEIDT                                                                                                                                           CENTRO                        AGROLANDIA                                          88420000                                                                           
20000223220190429161903        RPS       0000000000002019042900000000227403315000136                                                                                                                                                                                                      Agrolândia                                        SC00000000                                                                           0         000000000000        000000000099567000000000000000004120000000000000000000000000000000000N20000814495699000000000000000000000JANE RODRIGUES DA COSTA BENTO                                                                                                             Casa                          Centro                        AGROLANDIA                                          88420000jane@unidavi.edu.br                                                        
20000223120190429161823        RPS       0000000000002019042900000000227403315000136                                                                                                                                                                                                      Agrolândia                                        SC00000000                                                                           0         000000000000        000000000012313000000000000000004120000000000000000000000000000000000N20000706637992600000000000000000000ALESSANDRO MIRANDA                                                                                                                        CASA                          RIO TROMBUDO                  AGROLANDIA                                          88420000                                                                           
20000223020190429161743        RPS       0000000000002019042900000000227403315000136                                                                                                                                                                                                      Agrolândia                                        SC00000000                                                                           0         000000000000        000000000016466000000000000000004120000000000000000000000000000000000N10008982199896800000000000000000000DIONIR ROSA                                                                                                                                                             Interior                      AGROLANDIA                                          88420000                                                                           
20000222920190429161624        RPS       0000000000002019042900000000227403315000136                                                                                                                                                                                                      Agrolândia                                        SC00000000                                                                           0         000000000000        000000000016985000000000000000004120000000000000000000000000000000000N20000063169606700000000000000000000CLAUDIR MUSSKOPF                                                                                                                                                        TRES BARRAS                   AGROLANDIA                                          88420000                                                                           
20000222820190429161546        RPS       0000000000002019042900000000227403315000136                                                                                                                                                                                                      Agrolândia                                        SC00000000                                                                           0         000000000000        000000000016728000000000000000004120000000000000000000000000000000000N20000481525092800000000000000000000EGUINALDO ROSA                                                                                                                                                          SERRA DOS ALVES               AGROLANDIA                                          88420000                                                                           
20000222720190429161504        RPS       0000000000002019042900000000227403315000136                                                                                                                                                                                                      Agrolândia                                        SC00000000                                                                           0         000000000000        000000000017354000000000000000004120000000000000000000000000000000000N20000927897199500000000000000000000Adenir Busque Heiden                                                                                                                      Casa                          Sao Joao                      AGROLANDIA                                          88420000                                                                           
20000222620190429161411        RPS       0000000000002019042900000000227403315000136                                                                                                                                                                                                      Agrolândia                                        SC00000000                                                                           0         000000000000        000000000013750000000000000000004120000000000000000000000000000000000N20000532703090300000000000000000000JAIRO GONCALVES                                                                                                                                                         RIBEIRï¿½O DO TIGRE           AGROLANDIA                                          88420000                                                                           
20000222520190429161333        RPS       0000000000002019042900000000227403315000136                                                                                                                                                                                                      Agrolândia                                        SC00000000                                                                           0         000000000000        000000000012000000000000000000004120000000000000000000000000000000000N10009026383991500000000000000000000MARINA BORCK VENTURI                                                                                                                                                    SIGEL                         AGROLANDIA                                          88420000                                                                           
20000222420190429160755        RPS       0000000000002019042900000000227403315000136                                                                                                                                                                                                      Agrolândia                                        SC00000000                                                                           0         000000000000        000000000014236000000000000000004120000000000000000000000000000000000N10007158447197200000000000000000000NILCEIA DOS SANTOS SEBOLD                                                                                                                                               CENTRO                        AGROLANDIA                                          88420000                                                                           
20000222320190429160721        RPS       0000000000002019042900000000227403315000136                                                                                                                                                                                                      Agrolândia                                        SC00000000                                                                           0         000000000000        000000000027067000000000000000004120000000000000000000000000000000000N20000801447097400000000000000000000NATALY MATTEUSSI RAPPL                                                                                                                                                  SAO JOAO                      AGROLANDIA                                          88420000                                                                           
20000222220190429160639        RPS       0000000000002019042900000000227403315000136                                                                                                                                                                                                      Agrolândia                                        SC00000000                                                                           0         000000000000        000000000022567000000000000000004120000000000000000000000000000000000N10001236628098000000000000000000000Leticia Hedel                                                                                                                                                           Centro                        AGROLANDIA                                          88420000                                                                           
20000222120190429160558        RPS       0000000000002019042900000000227403315000136                                                                                                                                                                                                      Agrolândia                                        SC00000000                                                                           0         000000000000        000000000022400000000000000000004120000000000000000000000000000000000N20000245017798100000000000000000000GENILCE DA SILVA                                                                                                                                                        RIBEIRï¿½O KINDEL             TROMBUDO CENTRAL                                    89176000                                                                           
20000222020190429160521        RPS       0000000000002019042900000000227403315000136                                                                                                                                                                                                      Agrolândia                                        SC00000000                                                                           0         000000000000        000000000013666000000000000000004120000000000000000000000000000000000N20000682251895900000000000000000000RUBIANE RENATE NIQUELATI                                                                                                                                                TRES BARRAS                   AGROLANDIA                                          88420000                                                                           
20000221920190429160443        RPS       0000000000002019042900000000227403315000136                                                                                                                                                                                                      Agrolândia                                        SC00000000                                                                           0         000000000000        000000000128609000000000000000004120000000000000000000000000000000000N10009367165293400000000000000000000ALMIR DA SILVA                                                                                                                                                          VILA ADELAIDE                 RIO DO SUL                                          89172000                                                                           
20000221820190429160403        RPS       0000000000002019042900000000227403315000136                                                                                                                                                                                                      Agrolândia                                        SC00000000                                                                           0         000000000000        000000000045956000000000000000004120000000000000000000000000000000000N20000037664190800000000000000000000MARCIO ROBERTO SCHULLER                                                                                                                                                 SAO JOAO                      AGROLANDIA                                          88420000marcio.schuller@biocal.ind.br                                              
20000221720190429160323        RPS       0000000000002019042900000000227403315000136                                                                                                                                                                                                      Agrolândia                                        SC00000000                                                                           0         000000000000        000000000027583000000000000000004120000000000000000000000000000000000N10001035299097000000000000000000000MARILEUSA OLIVEIRA COSTA                                                                                                                                                RIO BONITO                    AGROLANDIA                                          88420000                                                                           
20000221620190429160240        RPS       0000000000002019042900000000227403315000136                                                                                                                                                                                                      Agrolândia                                        SC00000000                                                                           0         000000000000        000000000027471000000000000000004120000000000000000000000000000000000N20000944251196300000000000000000000BERENICE SILVEIRA                                                                                                                                                       Pitangueira                   AGROLANDIA                                          88420000                                                                           
20000221520190429155218        RPS       0000000000002019042900000000227403315000136                                                                                                                                                                                                      Agrolândia                                        SC00000000                                                                           0         000000000000        000000000015261000000000000000004120000000000000000000000000000000000N20000941236196300000000000000000000CAROLINE MAIARA RAMOS                                                                                                                     vazio                         INTERIOR                      AGROLANDIA                                          88420000                                                                           
20000221420190429155027        RPS       0000000000002019042900000000227403315000136                                                                                                                                                                                                      Agrolândia                                        SC00000000                                                                           0         000000000000        000000000017022000000000000000004120000000000000000000000000000000000N10002996006100000000000000000000000OSCAR FRANCISCO DE OLIVEIRA                                                                                                                                             SIEGEL                        AGROLANDIA                                          88420000droscar_deoliveira@yahoo.com.br                                            
20000221320190429154533        RPS       0000000000002019042900000000227403315000136                                                                                                                                                                                                      Agrolândia                                        SC00000000                                                                           0         000000000000        000000000018553000000000000000004120000000000000000000000000000000000N10009474257094400000000000000000000OSNILDO LEOPOLDO HASS                                                                                                                                                   Lorenal                       TROMBUDO CENTRAL                                    89176000                                                                           
20000221220190429154448        RPS       0000000000002019042900000000227403315000136                                                                                                                                                                                                      Agrolândia                                        SC00000000                                                                           0         000000000000        000000000017354000000000000000004120000000000000000000000000000000000N20000296175390200000000000000000000JEFERSON RICARDO METZGER                                                                                                                                                CENTRO                        AGROLANDIA                                          88420000                                                                           
20000221120190429154408        RPS       0000000000002019042900000000227403315000136                                                                                                                                                                                                      Agrolândia                                        SC00000000                                                                           0         000000000000        000000000012000000000000000000004120000000000000000000000000000000000N10009644049098200000000000000000000SIMONE MARCELLO                                                                                                                                                         CENTRO                        AGROLANDIA                                          88420000                                                                           
20000221020190429153724        RPS       0000000000002019042900000000227403315000136                                                                                                                                                                                                      Agrolândia                                        SC00000000                                                                           0         000000000000        000000000091934000000000000000004120000000000000000000000000000000000N20000392947595200000000000000000000SALETE MARIA KROENKE                                                                                                                                                    SANTO ANTONIO                 ATALANTA                                            88410000                                                                           
20000220920190429153637        RPS       0000000000002019042900000000227403315000136                                                                                                                                                                                                      Agrolândia                                        SC00000000                                                                           0         000000000000        000000000032900000000000000000004120000000000000000000000000000000000N20000430880197400000000000000000000Ireni Miranda                                                                                                                                                           CENTRO                        BRACO DO TROMBUDO                                   89178000                                                                           
20000220820190429153556        RPS       0000000000002019042900000000227403315000136                                                                                                                                                                                                      Agrolândia                                        SC00000000                                                                           0         000000000000        000000000015875000000000000000004120000000000000000000000000000000000N10006469600697200000000000000000000DALVINO VIEIRA LOPES                                                                                                                                                    CENTRO                        AGROLANDIA                                          88420000                                                                           
20000220720190429153450        RPS       0000000000002019042900000000227403315000136                                                                                                                                                                                                      Agrolândia                                        SC00000000                                                                           0         000000000000        000000000017630000000000000000004120000000000000000000000000000000000N10004518593090000000000000000000000VALDECIR FERREIRA DA SILVA                                                                                                                                              CENTRO                        AGROLANDIA                                          88420000                                                                           
20000220620190429153410        RPS       0000000000002019042900000000227403315000136                                                                                                                                                                                                      Agrolândia                                        SC00000000                                                                           0         000000000000        000000000017236000000000000000004120000000000000000000000000000000000N10001067698094500000000000000000000ALESSANDRO SCHNEIDER DOS SANTOS                                                                                                                                         CENTRO                        AGROLANDIA                                          88420000                                                                           
20000220520190429153319        RPS       0000000000002019042900000000227403315000136                                                                                                                                                                                                      Agrolândia                                        SC00000000                                                                           0         000000000000        000000000016950000000000000000004120000000000000000000000000000000000N20000397639694000000000000000000000JULIANO SCHNEIDER                                                                                                                                                       CENTRO                        AGROLANDIA                                          88420000                                                                           
20000220420190426151408        RPS       0000000000002019042600000000227403315000136                                                                                                                                                                                                      Agrolândia                                        SC00000000                                                                           0C20190426000000000000        000000000026436000000000000000004120000000000000000000000000000000000N10009486474893400000000000000000000RENATA STAROSKY KUNZ                                                                                                                                                    EST. GERAL SANTO ANTONIO      ATALANTA                                            88410000                                                                           
20000220320190426151313        RPS       0000000000002019042600000000227403315000136                                                                                                                                                                                                      Agrolândia                                        SC00000000                                                                           0C20190426000000000000        000000000331100000000000000000004120000000000000000000000000000000000N20000411789295900000000000000000000GEISI EISELER                                                                                                                                                           CENTRO                        ATALANTA                                            88410000                                                                           
20000220220190426151211        RPS       0000000000002019042600000000227403315000136                                                                                                                                                                                                      Agrolândia                                        SC00000000                                                                           0C20190426000000000000        000000000017645000000000000000004120000000000000000000000000000000000N20000317958895000000000000000000000SONIA RASSWEILER                                                                                                                                                        IPIRANGA                      AGROLANDIA                                          88420000                                                                           
20000220120190426151123        RPS       0000000000002019042600000000227403315000136                                                                                                                                                                                                      Agrolândia                                        SC00000000                                                                           0C20190426000000000000        000000000116614000000000000000004120000000000000000000000000000000000N10001050751493900000000000000000000GABRIELA PROCHNOW                                                                                                                                                       ALTO DONA LUIZA               ATALANTA                                            88410000                                                                           
20000220020190426151019        RPS       0000000000002019042600000000227403315000136                                                                                                                                                                                                      Agrolândia                                        SC00000000                                                                           0C20190426000000000000        000000000014457000000000000000004120000000000000000000000000000000000N20000222508892600000000000000000000ELIZIANI RAMOS DE OLIVEIRA                                                                                                                                              CERRO NEGRO                   ITUPORANGA                                          88400000                                                                           
20000219920190426150917        RPS       0000000000002019042600000000227403315000136                                                                                                                                                                                                      Agrolândia                                        SC00000000                                                                           0C20190426000000000000        000000000099567000000000000000004120000000000000000000000000000000000N20000487688490000000000000000000000ROZILENE XAVIER HEIDERSCHEIDT                                                                                                                                           CENTRO                        AGROLANDIA                                          88420000                                                                           
20000219820190426150805        RPS       0000000000002019042600000000227403315000136                                                                                                                                                                                                      Agrolândia                                        SC00000000                                                                           0C20190426000000000000        000000000012313000000000000000004120000000000000000000000000000000000N20000814495699000000000000000000000JANE RODRIGUES DA COSTA BENTO                                                                                                             Casa                          Centro                        AGROLANDIA                                          88420000jane@unidavi.edu.br                                                        
20000219720190426150717        RPS       0000000000002019042600000000227403315000136                                                                                                                                                                                                      Agrolândia                                        SC00000000                                                                           0C20190426000000000000        000000000016466000000000000000004120000000000000000000000000000000000N20000706637992600000000000000000000ALESSANDRO MIRANDA                                                                                                                        CASA                          RIO TROMBUDO                  AGROLANDIA                                          88420000                                                                           
20000219620190426150636        RPS       0000000000002019042600000000227403315000136                                                                                                                                                                                                      Agrolândia                                        SC00000000                                                                           0C20190426000000000000        000000000016985000000000000000004120000000000000000000000000000000000N10008982199896800000000000000000000DIONIR ROSA                                                                                                                                                             Interior                      AGROLANDIA                                          88420000                                                                           
