1001075391892019010720191223
20000918720191223163723        RPS       0000000000002019122307539189211908269000197ORTHO LIFE CLINICA ODONTOLOGICA LTDA                                          Q CSB 02 LOTES 01 A 04 SALAS 417 A                420                                     TAGUATINGA                    Brasília                                          DF72015901                                                                           4         000000000000        000000000211710000000000000000051020200000000000000000000000000000000 10000315446064000000000000000000000TATIANA BARBOSA DOS SANTOS PINTO                                              QSE AREA ESPECIAL 20 LOTE 19 APART. 105           105                                     TAGUATINGA                    Brasília                                          DF00000000                                                                           
20000918620191223145104        RPS       0000000000002019122307539189211908269000197ORTHO LIFE CLINICA ODONTOLOGICA LTDA                                          Q CSB 02 LOTES 01 A 04 SALAS 417 A                420                                     TAGUATINGA                    Brasília                                          DF72015901                                                                           4         000000000000        000000000350000000000000000000051020200000000000000000000000000000000 10008769924910000000000000000000000PATRICIA RODRIGUES AMORIM                                                     QR 507 CONJUNTO 7                                 007                                     BRASILIA                      Brasília                                          DF00000000                                                                           
20000918520191223113618        RPS       0000000000002019122307539189211908269000197ORTHO LIFE CLINICA ODONTOLOGICA LTDA                                          Q CSB 02 LOTES 01 A 04 SALAS 417 A                420                                     TAGUATINGA                    Brasília                                          DF72015901                                                                           4         000000000000        000000000222167000000000000000051020200000000000000000000000000000000 10007913123915300000000000000000000CLAUDEJANE DOS SANTOS SILVA                                                   QUADRA 101 LOTE 38                                038                                     BRASILIA                      Brasília                                          DF00000000                                                                           
20000918420191223110603        RPS       0000000000002019122307539189211908269000197ORTHO LIFE CLINICA ODONTOLOGICA LTDA                                          Q CSB 02 LOTES 01 A 04 SALAS 417 A                420                                     TAGUATINGA                    Brasília                                          DF72015901                                                                           4         000000000000        000000000006000000000000000000051020200000000000000000000000000000000 10004168521010400000000000000000000REINALDO PEDRO                                                                CSB 03 LOTE 05                                    005                                     BRASILIA                      Brasília                                          DF00000000                                                                           
20000918320191220112707        RPS       0000000000002019122007539189211908269000197ORTHO LIFE CLINICA ODONTOLOGICA LTDA                                          Q CSB 02 LOTES 01 A 04 SALAS 417 A                420                                     TAGUATINGA                    Brasília                                          DF72015901                                                                           4         000000000000        000000000009000000000000000000059330200000000000000000000000000000000 10000324359110400000000000000000000MARIA DO CARMO MENEZES                                                        RUA CSB 4 LOTE 4/8                                004                                     BRASILIA                      Brasília                                          DF00000000                                                                           
20000918220191220112527        RPS       0000000000002019122007539189211908269000197ORTHO LIFE CLINICA ODONTOLOGICA LTDA                                          Q CSB 02 LOTES 01 A 04 SALAS 417 A                420                                     TAGUATINGA                    Brasília                                          DF72015901                                                                           4         000000000000        000000000009000000000000000000059330200000000000000000000000000000000 10001503099717200000000000000000000DORACI TEODORO DE OLIVEIRA                                                    RUA CSB 4 LOTE 4/8                                004                                     BRASILIA                      Brasília                                          DF00000000                                                                           
20000918120191220095900        RPS       0000000000002019122007539189211908269000197ORTHO LIFE CLINICA ODONTOLOGICA LTDA                                          Q CSB 02 LOTES 01 A 04 SALAS 417 A                420                                     TAGUATINGA                    Brasília                                          DF72015901                                                                           4         000000000000        000000000096000000000000000000051020200000000000000000000000000000000 10005533941711500000000000000000000ROSILANIA DE LIMA FARIAS ASSIS                                                QNO 5 CONJUNTO L CASA 8                           008                                     BRASILIA                      Brasília                                          DF00000000                                                                           
20000918020191219154827        RPS       0000000000002019121907539189211908269000197ORTHO LIFE CLINICA ODONTOLOGICA LTDA                                          Q CSB 02 LOTES 01 A 04 SALAS 417 A                420                                     TAGUATINGA                    Brasília                                          DF72015901                                                                           4         000000000000        000000000030000000000000000000051020200000000000000000000000000000000 10008611234111500000000000000000000NOELIA MARIA OLIVEIRA CAMPOS                                                  RUA QNG 41 CASA 15, 15                            015                                     BRASILIA                      Brasília                                          DF00000000                                                                           
20000917920191218172036        RPS       0000000000002019121807539189211908269000197ORTHO LIFE CLINICA ODONTOLOGICA LTDA                                          Q CSB 02 LOTES 01 A 04 SALAS 417 A                420                                     TAGUATINGA                    Brasília                                          DF72015901                                                                           4         000000000000        000000000240000000000000000000051020200000000000000000000000000000000 10004983698647200000000000000000000NIVIA DIAS DE MEDEIROS                                                        RUA 35 SUL APARTAMENTO 509                        509                                     BRASILIA                      Brasília                                          DF00000000                                                                           
20000917820191218105124        RPS       0000000000002019121807539189211908269000197ORTHO LIFE CLINICA ODONTOLOGICA LTDA                                          Q CSB 02 LOTES 01 A 04 SALAS 417 A                420                                     TAGUATINGA                    Brasília                                          DF72015901                                                                           4         000000000000        000000000012000000000000000000051020200000000000000000000000000000000 10006466315916800000000000000000000CLEIDE DO NASCIMENTO COELHO                                                   QNO 15 CONJUNTO A CASA                            036                                     BRASILIA                      Brasília                                          DF00000000                                                                           
20000917720191218093934        RPS       0000000000002019121807539189211908269000197ORTHO LIFE CLINICA ODONTOLOGICA LTDA                                          Q CSB 02 LOTES 01 A 04 SALAS 417 A                420                                     TAGUATINGA                    Brasília                                          DF72015901                                                                           4         000000000000        000000000159136000000000000000051020200000000000000000000000000000000 10004431302018700000000000000000000ANDRE LUIS CORREA DE MELO                                                     SHA CONJUNTO 6 CHACARA 18G RUA 02 CASA            030                                     BRASILIA                      Brasília                                          DF00000000                                                                           
20000917620191218092505        RPS       0000000000002019121807539189211908269000197ORTHO LIFE CLINICA ODONTOLOGICA LTDA                                          Q CSB 02 LOTES 01 A 04 SALAS 417 A                420                                     TAGUATINGA                    Brasília                                          DF72015901                                                                           4         000000000000        000000000155947000000000000000051020200000000000000000000000000000000 10001853135011500000000000000000000CAMILO JOSE CRIVELARO                                                         QNH 04 CASA 07                                    007                                     BRASILIA                      Brasília                                          DF00000000                                                                           
20000917520191217160903        RPS       0000000000002019121707539189211908269000197ORTHO LIFE CLINICA ODONTOLOGICA LTDA                                          Q CSB 02 LOTES 01 A 04 SALAS 417 A                420                                     TAGUATINGA                    Brasília                                          DF72015901                                                                           4         000000000000        000000000042600000000000000000051020200000000000000000000000000000000 10000104373911400000000000000000000MARCIA SILVA PEREIRA                                                          QNN 04 CONJ M CASA 02                             002                                     CEILANDIA                     Brasília                                          DF00000000                                                                           
20000917420191217110324        RPS       0000000000002019121707539189211908269000197ORTHO LIFE CLINICA ODONTOLOGICA LTDA                                          Q CSB 02 LOTES 01 A 04 SALAS 417 A                420                                     TAGUATINGA                    Brasília                                          DF72015901                                                                           4         000000000000        000000000186720000000000000000051020200000000000000000000000000000000 10002027494731500000000000000000000SALVIA BARBOSA FARIAS                                                         QNL 28 CONJUNTO C CASA 7                          007                                     BRASILIA                      Brasília                                          DF00000000                                                                           
20000917320191217103613        RPS       0000000000002019121707539189211908269000197ORTHO LIFE CLINICA ODONTOLOGICA LTDA                                          Q CSB 02 LOTES 01 A 04 SALAS 417 A                420                                     TAGUATINGA                    Brasília                                          DF72015901                                                                           4         000000000000        000000000102740000000000000000051020200000000000000000000000000000000 10001215286210400000000000000000000TEREZINHA APARECIDA DE JESUS                                                  RUA CSB 06 LOTE 03 EDIFICIO VIA BELA APT 1005     1005                                    BRASILIA                      Brasília                                          DF00000000                                                                           
20000917220191217082314        RPS       0000000000002019121707539189211908269000197ORTHO LIFE CLINICA ODONTOLOGICA LTDA                                          Q CSB 02 LOTES 01 A 04 SALAS 417 A                420                                     TAGUATINGA                    Brasília                                          DF72015901                                                                           4         000000000000        000000000023800000000000000000059330200000000000000000000000000000000 20229059400014800000000751030100193CENTRO SOCIAL COMUNITARIO TIA ANGELINA                                        QUADRA 4 CHACARA 28                               028                                     BRASILIA                      Brasília                                          DF00000000                                                                           
20000917120191217081927        RPS       0000000000002019121707539189211908269000197ORTHO LIFE CLINICA ODONTOLOGICA LTDA                                          Q CSB 02 LOTES 01 A 04 SALAS 417 A                420                                     TAGUATINGA                    Brasília                                          DF72015901                                                                           4         000000000000        000000000021400000000000000000069330200000000000000000000000000000000 20327382500017800000000000000000000METLIFE                                                                       FLORIDA 1595, 5. ANDAR, BROOKLIN NOVO, SAO PAULO-S1595                                    SAO PAULO                     São Paulo                                         SP00000000                                                                           
20000917020191216112227        RPS       0000000000002019121607539189211908269000197ORTHO LIFE CLINICA ODONTOLOGICA LTDA                                          Q CSB 02 LOTES 01 A 04 SALAS 417 A                420                                     TAGUATINGA                    Brasília                                          DF72015901                                                                           4         000000000000        000000000233000000000000000000051020200000000000000000000000000000000 10009325093219100000000000000000000HUMBERTO SILVA MAIA                                                           CSB 8 LOTE 3 APARTAMENTO 1005                     1005                                    BRASILIA                      Brasília                                          DF00000000                                                                           
20000916920191216083211        RPS       0000000000002019121607539189211908269000197ORTHO LIFE CLINICA ODONTOLOGICA LTDA                                          Q CSB 02 LOTES 01 A 04 SALAS 417 A                420                                     TAGUATINGA                    Brasília                                          DF72015901                                                                           4         000000000000        000000000129836000000000000000051020200000000000000000000000000000000 10007168097717200000000000000000000LILIAN DA ROCHA MELO                                                          QUADRA 205 LOTE 07 BLOCO A APTO 204               204                                     BRASILIA                      Brasília                                          DF00000000                                                                           
20000916820191214114025        RPS       0000000000002019121407539189211908269000197ORTHO LIFE CLINICA ODONTOLOGICA LTDA                                          Q CSB 02 LOTES 01 A 04 SALAS 417 A                420                                     TAGUATINGA                    Brasília                                          DF72015901                                                                           4         000000000000        000000000072000000000000000000051020200000000000000000000000000000000 10004947288736800000000000000000000HELCIA CHRYSTIANE CORREA SILVA DE OLIVEIRA                                    QSC 11                                            011                                     BRASILIA                      Brasília                                          DF00000000                                                                           
20000916720191214091120        RPS       0000000000002019121407539189211908269000197ORTHO LIFE CLINICA ODONTOLOGICA LTDA                                          Q CSB 02 LOTES 01 A 04 SALAS 417 A                420                                     TAGUATINGA                    Brasília                                          DF72015901                                                                           4         000000000000        000000000063777000000000000000051020200000000000000000000000000000000 10009253007915300000000000000000000ALDO OLIVEIRA BARBOSA                                                         QNE 12                                            012                                     BRASILIA                      Brasília                                          DF00000000                                                                           
20000916620191213165654        RPS       0000000000002019121307539189211908269000197ORTHO LIFE CLINICA ODONTOLOGICA LTDA                                          Q CSB 02 LOTES 01 A 04 SALAS 417 A                420                                     TAGUATINGA                    Brasília                                          DF72015901                                                                           4         000000000000        000000000120000000000000000000051020200000000000000000000000000000000 10002887686518700000000000000000000MARIA DE FATIMA NUNES DE FREITAS                                              QUADRA 403 CONJUNTO 16 CASA 20                    020                                     BRASILIA                      Brasília                                          DF00000000                                                                           
20000916520191213100917        RPS       0000000000002019121307539189211908269000197ORTHO LIFE CLINICA ODONTOLOGICA LTDA                                          Q CSB 02 LOTES 01 A 04 SALAS 417 A                420                                     TAGUATINGA                    Brasília                                          DF72015901                                                                           4         000000000000        000000000140225000000000000000051020200000000000000000000000000000000 10001515307018200000000000000000000ZOLENICE LINO JORDAO                                                          QE 38 CONJUNTO N CASA 10                          010                                     BRASILIA                      Brasília                                          DF00000000                                                                           
20000916420191211105135        RPS       0000000000002019121107539189211908269000197ORTHO LIFE CLINICA ODONTOLOGICA LTDA                                          Q CSB 02 LOTES 01 A 04 SALAS 417 A                420                                     TAGUATINGA                    Brasília                                          DF72015901                                                                           4         000000000000        000000000080000000000000000000059330200000000000000000000000000000000 10007245757011500000000000000000000ISMAEL FRANCA CAMPOS                                                          QR 104 CONJUNTO 7 CASA 07                         007                                     BRASILIA                      Brasília                                          DF00000000                                                                           
20000916320191211104443        RPS       0000000000002019121107539189211908269000197ORTHO LIFE CLINICA ODONTOLOGICA LTDA                                          Q CSB 02 LOTES 01 A 04 SALAS 417 A                420                                     TAGUATINGA                    Brasília                                          DF72015901                                                                           4         000000000000        000000000041120000000000000000051020200000000000000000000000000000000 10007245757011500000000000000000000ISMAEL FRANCA CAMPOS                                                          QR 104 CONJUNTO 7 CASA 07                         007                                     BRASILIA                      Brasília                                          DF00000000                                                                           
20000916220191210164443        RPS       0000000000002019121007539189211908269000197ORTHO LIFE CLINICA ODONTOLOGICA LTDA                                          Q CSB 02 LOTES 01 A 04 SALAS 417 A                420                                     TAGUATINGA                    Brasília                                          DF72015901                                                                           4         000000000000        000000000012000000000000000000051020200000000000000000000000000000000 10000441618812900000000000000000000CLAUDIO HENRIQUE MACHADO LIMA                                                 RUA QND 15 CASA 28                                028                                     BRASILIA                      Brasília                                          DF00000000                                                                           
20000916120191210104919        RPS       0000000000002019121007539189211908269000197ORTHO LIFE CLINICA ODONTOLOGICA LTDA                                          Q CSB 02 LOTES 01 A 04 SALAS 417 A                420                                     TAGUATINGA                    Brasília                                          DF72015901                                                                           4         000000000000        000000000352978000000000000000059330200000000000000000000000000000000 10003650454815300000000000000000000ELIAS MARTINS BUENO                                                           QR 320 CONJUNTO 2 CASA 26                         026                                     BRASILIA                      Brasília                                          DF00000000                                                                           
20000916020191210083541        RPS       0000000000002019121007539189211908269000197ORTHO LIFE CLINICA ODONTOLOGICA LTDA                                          Q CSB 02 LOTES 01 A 04 SALAS 417 A                420                                     TAGUATINGA                    Brasília                                          DF72015901                                                                           4         000000000000        000000000635538000000000000000059330200000000000000000000000000000000 22930912700947800000000732413900404AMIL ASSISTENCIA MEDICA INTERNACIONAL SA                                      ST SMAS,                                          6580                                    ZONA INDUSTRIAL (GUARA)       Brasília                                          DF00000000                                                                           
20000915920191206162430        RPS       0000000000002019120607539189211908269000197ORTHO LIFE CLINICA ODONTOLOGICA LTDA                                          Q CSB 02 LOTES 01 A 04 SALAS 417 A                420                                     TAGUATINGA                    Brasília                                          DF72015901                                                                           4         000000000000        000000000030000000000000000000051020200000000000000000000000000000000 10005846012817200000000000000000000ANTONIO JOSE LOPES DE SOUSA                                                   QUADRA QUADRA 106 LOTE 08 APTO                    008                                     BRASILIA                      Brasília                                          DF00000000                                                                           
20000915820191206141555        RPS       0000000000002019120607539189211908269000197ORTHO LIFE CLINICA ODONTOLOGICA LTDA                                          Q CSB 02 LOTES 01 A 04 SALAS 417 A                420                                     TAGUATINGA                    Brasília                                          DF72015901                                                                           4         000000000000        000000000076452000000000000000051020200000000000000000000000000000000 10007144736914900000000000000000000DANIELE CORREIA PINTO                                                         QNL 20 CONJ A CASA 41                             041                                     TAGUATINGA                    Brasília                                          DF00000000                                                                           
20000915720191205170610        RPS       0000000000002019120507539189211908269000197ORTHO LIFE CLINICA ODONTOLOGICA LTDA                                          Q CSB 02 LOTES 01 A 04 SALAS 417 A                420                                     TAGUATINGA                    Brasília                                          DF72015901                                                                           4         000000000000        000000000075000000000000000000059330200000000000000000000000000000000 10007216079914900000000000000000000GEORGIA FIRME LIMA                                                            CSB                                               002                                     BRASILIA                      Brasília                                          DF00000000                                                                           
20000915620191205151602        RPS       0000000000002019120507539189211908269000197ORTHO LIFE CLINICA ODONTOLOGICA LTDA                                          Q CSB 02 LOTES 01 A 04 SALAS 417 A                420                                     TAGUATINGA                    Brasília                                          DF72015901                                                                           4         000000000000        000000000075000000000000000000051020200000000000000000000000000000000 10006467347218700000000000000000000SIMAO RODRIGUES DOS SANTOS MARTINS                                            QI 416 CONJ 1 LOTE 1/16 BL C APT 107              107                                     SAMAMBAIA                     Brasília                                          DF00000000                                                                           
20000915520191205120303        RPS       0000000000002019120507539189211908269000197ORTHO LIFE CLINICA ODONTOLOGICA LTDA                                          Q CSB 02 LOTES 01 A 04 SALAS 417 A                420                                     TAGUATINGA                    Brasília                                          DF72015901                                                                           4         000000000000        000000000012000000000000000000051020200000000000000000000000000000000 10008357578217200000000000000000000MARDILLA JEANE CARLOS DE OLIVEIRA                                             QUADRA 111 COMJ 8 CASA 24                         024                                     BRASILIA                      Brasília                                          DF00000000                                                                           
20000915420191205100314        RPS       0000000000002019120507539189211908269000197ORTHO LIFE CLINICA ODONTOLOGICA LTDA                                          Q CSB 02 LOTES 01 A 04 SALAS 417 A                420                                     TAGUATINGA                    Brasília                                          DF72015901                                                                           4         000000000000        000000000191000000000000000000059330200000000000000000000000000000000 10000289517710400000000000000000000ANTONIO MARCOS SOARES DA CONCEICAO                                            CSB 3 LOTE 07 APTO 1502                           1502                                    BRASILIA                      Brasília                                          DF00000000                                                                           
20000915320191204135706        RPS       0000000000002019120407539189211908269000197ORTHO LIFE CLINICA ODONTOLOGICA LTDA                                          Q CSB 02 LOTES 01 A 04 SALAS 417 A                420                                     TAGUATINGA                    Brasília                                          DF72015901                                                                           4         000000000000        000000000160000000000000000000059330200000000000000000000000000000000 10003688554116800000000000000000000ELIANE NUNES LIMA                                                             QNM 18 CNJ E CASA 49                              049                                     BRASILIA                      Brasília                                          DF00000000                                                                           
20000915220191204100348        RPS       0000000000002019120407539189211908269000197ORTHO LIFE CLINICA ODONTOLOGICA LTDA                                          Q CSB 02 LOTES 01 A 04 SALAS 417 A                420                                     TAGUATINGA                    Brasília                                          DF72015901                                                                           4         000000000000        000000000160000000000000000000059330200000000000000000000000000000000 10005389644018700000000000000000000LUSIA ARAUJO FREITAS LEITE                                                    QR 321 CONJUNTO 7 CASA 01                         001                                     BRASILIA                      Brasília                                          DF00000000                                                                           
20000915120191203163446        RPS       0000000000002019120307539189211908269000197ORTHO LIFE CLINICA ODONTOLOGICA LTDA                                          Q CSB 02 LOTES 01 A 04 SALAS 417 A                420                                     TAGUATINGA                    Brasília                                          DF72015901                                                                           4         000000000000        000000000107000000000000000000051020200000000000000000000000000000000 10000617279764600000000000000000000EDER CAETANO DE CASTRO                                                        RUA 3C CHACARA 27 LOTE                            35A                                     VICENTE PIRES                 Brasília                                          DF00000000                                                                           
20000915020191203142557        RPS       0000000000002019120307539189211908269000197ORTHO LIFE CLINICA ODONTOLOGICA LTDA                                          Q CSB 02 LOTES 01 A 04 SALAS 417 A                420                                     TAGUATINGA                    Brasília                                          DF72015901                                                                           4         000000000000        000000000070000000000000000000059330200000000000000000000000000000000 10003204842380900000000000000000000CLYVISON HARLLEN OLIVEIRA                                                     RUA QNN 11 LOTE 2/4 BLOCO A APTO 902              902                                     BRASILIA                      Brasília                                          DF00000000                                                                           
20000914920191203085837        RPS       0000000000002019120307539189211908269000197ORTHO LIFE CLINICA ODONTOLOGICA LTDA                                          Q CSB 02 LOTES 01 A 04 SALAS 417 A                420                                     TAGUATINGA                    Brasília                                          DF72015901                                                                           4         000000000000        000000000626005000000000000000059330200000000000000000000000000000000 22930912700947800000000732413900404AMIL ASSISTENCIA MEDICA INTERNACIONAL SA                                      ST SMAS,                                          6580                                    ZONA INDUSTRIAL (GUARA)       Brasília                                          DF00000000                                                                           
20000914820191128110110        RPS       0000000000002019112807539189211908269000197ORTHO LIFE CLINICA ODONTOLOGICA LTDA                                          Q CSB 02 LOTES 01 A 04 SALAS 417 A                420                                     TAGUATINGA                    Brasília                                          DF72015901                                                                           4         000000000000        000000000214293000000000000000051020200000000000000000000000000000000 10004056271933400000000000000000000IGUARACY DO SOCORRO VIEIRA AGUIAR                                             QUADRA 25 LOTE 44                                 044                                     BRASILIA                      Brasília                                          DF00000000                                                                           
20000914720191128092333        RPS       0000000000002019112807539189211908269000197ORTHO LIFE CLINICA ODONTOLOGICA LTDA                                          Q CSB 02 LOTES 01 A 04 SALAS 417 A                420                                     TAGUATINGA                    Brasília                                          DF72015901                                                                           4         000000000000        000000000023800000000000000000059330200000000000000000000000000000000 20229059400014800000000751030100193CENTRO SOCIAL COMUNITARIO TIA ANGELINA                                        QUADRA 4 CHACARA 28                               028                                     BRASILIA                      Brasília                                          DF00000000                                                                           
20000914620191126111953        RPS       0000000000002019112607539189211908269000197ORTHO LIFE CLINICA ODONTOLOGICA LTDA                                          Q CSB 02 LOTES 01 A 04 SALAS 417 A                420                                     TAGUATINGA                    Brasília                                          DF72015901                                                                           4         000000000000        000000000522527000000000000000051020200000000000000000000000000000000 10006978353515300000000000000000000PAULA DE SOUZA SARMENTO                                                       RUA 01 CHACARA 25/3 CASA 36A                      036                                     VICENTE PIRES                 Brasília                                          DF00000000                                                                           
20000914520191126104031        RPS       0000000000002019112607539189211908269000197ORTHO LIFE CLINICA ODONTOLOGICA LTDA                                          Q CSB 02 LOTES 01 A 04 SALAS 417 A                420                                     TAGUATINGA                    Brasília                                          DF72015901                                                                           4         000000000000        000000000283784000000000000000059330200000000000000000000000000000000 10001135301514900000000000000000000ANA MARIA LEVINO                                                              QNA 14                                            014                                     BRASILIA                      Brasília                                          DF00000000                                                                           
20000914420191126104025        RPS       0000000000002019112607539189211908269000197ORTHO LIFE CLINICA ODONTOLOGICA LTDA                                          Q CSB 02 LOTES 01 A 04 SALAS 417 A                420                                     TAGUATINGA                    Brasília                                          DF72015901                                                                           4         000000000000        000000000240000000000000000000059330200000000000000000000000000000000 10001135301514900000000000000000000ANA MARIA LEVINO                                                              QNA 14                                            014                                     BRASILIA                      Brasília                                          DF00000000                                                                           
20000914320191125114521        RPS       0000000000002019112507539189211908269000197ORTHO LIFE CLINICA ODONTOLOGICA LTDA                                          Q CSB 02 LOTES 01 A 04 SALAS 417 A                420                                     TAGUATINGA                    Brasília                                          DF72015901                                                                           4         000000000000        000000000600000000000000000000059330200000000000000000000000000000000 10004432884215300000000000000000000LAURO BRAGATTO                                                                RUA 10A CHACARA 127 CASA 17                       017                                     VICENTE PIRES                 Brasília                                          DF00000000                                                                           
20000914120191120144140        RPS       0000000000002019112007539189211908269000197ORTHO LIFE CLINICA ODONTOLOGICA LTDA                                          Q CSB 02 LOTES 01 A 04 SALAS 417 A                420                                     TAGUATINGA                    Brasília                                          DF72015901                                                                           4         000000000000        000000000145440000000000000000069330200000000000000000000000000000000 20327382500017800000000000000000000METLIFE                                                                       FLORIDA 1595, 5. ANDAR, BROOKLIN NOVO, SAO PAULO-S1595                                    SAO PAULO                     São Paulo                                         SP00000000                                                                           
20000914020191118160704        RPS       0000000000002019111807539189211908269000197ORTHO LIFE CLINICA ODONTOLOGICA LTDA                                          Q CSB 02 LOTES 01 A 04 SALAS 417 A                420                                     TAGUATINGA                    Brasília                                          DF72015901                                                                           4         000000000000        000000000085000000000000000000059330200000000000000000000000000000000 10007168097717200000000000000000000LILIAN DA ROCHA MELO                                                          QUADRA 205 LOTE 07 BLOCO A APTO 204               204                                     BRASILIA                      Brasília                                          DF00000000                                                                           
20000913920191116095043        RPS       0000000000002019111607539189211908269000197ORTHO LIFE CLINICA ODONTOLOGICA LTDA                                          Q CSB 02 LOTES 01 A 04 SALAS 417 A                420                                     TAGUATINGA                    Brasília                                          DF72015901                                                                           4         000000000000        000000000008000000000000000000059330200000000000000000000000000000000 10009519800816800000000000000000000ELCY FERNANDA FERREIRA RIBEIRO                                                RUA QUADRA 104 CONJUNTO 14 CASA                   003                                     BRASILIA                      Brasília                                          DF00000000                                                                           
20000913820191114122957        RPS       0000000000002019111407539189211908269000197ORTHO LIFE CLINICA ODONTOLOGICA LTDA                                          Q CSB 02 LOTES 01 A 04 SALAS 417 A                420                                     TAGUATINGA                    Brasília                                          DF72015901                                                                           4         000000000000        000000000145440000000000000000069330200000000000000000000000000000000 20327382500017800000000000000000000METLIFE                                                                       FLORIDA 1595, 5. ANDAR, BROOKLIN NOVO, SAO PAULO-S1595                                    SAO PAULO                     São Paulo                                         SP00000000                                                                           
20000913720191109083301        RPS       0000000000002019110907539189211908269000197ORTHO LIFE CLINICA ODONTOLOGICA LTDA                                          Q CSB 02 LOTES 01 A 04 SALAS 417 A                420                                     TAGUATINGA                    Brasília                                          DF72015901                                                                           4         000000000000        000000000101750000000000000000051020200000000000000000000000000000000 10002290179523400000000000000000000RUTH HELENA PINHEIRO DE SOUZA VARELA                                          QNJ 17 LOTE 11 APTO 202                           202                                     BRASILIA                      Brasília                                          DF00000000                                                                           
20000913620191109082716        RPS       0000000000002019110907539189211908269000197ORTHO LIFE CLINICA ODONTOLOGICA LTDA                                          Q CSB 02 LOTES 01 A 04 SALAS 417 A                420                                     TAGUATINGA                    Brasília                                          DF72015901                                                                           4         000000000000        000000000002720000000000000000069330200000000000000000000000000000000 20327382500017800000000000000000000METLIFE                                                                       FLORIDA 1595, 5. ANDAR, BROOKLIN NOVO, SAO PAULO-S1595                                    SAO PAULO                     São Paulo                                         SP00000000                                                                           
20000913520191104175214        RPS       0000000000002019110407539189211908269000197ORTHO LIFE CLINICA ODONTOLOGICA LTDA                                          Q CSB 02 LOTES 01 A 04 SALAS 417 A                420                                     TAGUATINGA                    Brasília                                          DF72015901                                                                           4         000000000000        000000000040000000000000000000059330200000000000000000000000000000000 10000107715716900000000000000000000ALINE PEREIRA NEVES SILVEIRA                                                  RUA 3C CHACARA 26 CASA 26                         026                                     BRASILI                       Brasília                                          DF00000000                                                                           
20000913420191101145429        RPS       0000000000002019110107539189211908269000197ORTHO LIFE CLINICA ODONTOLOGICA LTDA                                          Q CSB 02 LOTES 01 A 04 SALAS 417 A                420                                     TAGUATINGA                    Brasília                                          DF72015901                                                                           4         000000000000        000000000079000000000000000000059330200000000000000000000000000000000 10000140065814400000000000000000000ANDREIA ALINE SANTANA                                                         QNM 23 CONJUNTO H CASA 36                         036                                     BRASILIA                      Brasília                                          DF00000000                                                                           
20000913320191031160109        RPS       0000000000002019103107539189211908269000197ORTHO LIFE CLINICA ODONTOLOGICA LTDA                                          Q CSB 02 LOTES 01 A 04 SALAS 417 A                420                                     TAGUATINGA                    Brasília                                          DF72015901                                                                           4         000000000000        000000000019385000000000000000069330200000000000000000000000000000000 20085642400015200000000000000000000INPAO                                                                         AVENIDA VEREADOR JOSE DINIZ                       003                                     SANTO AMARO                   São Paulo                                         SP00000000                                                                           
20000913220191031141833        RPS       0000000000002019103107539189211908269000197ORTHO LIFE CLINICA ODONTOLOGICA LTDA                                          Q CSB 02 LOTES 01 A 04 SALAS 417 A                420                                     TAGUATINGA                    Brasília                                          DF72015901                                                                           4         000000000000        000000000028000000000000000000069330200000000000000000000000000000000 10002236333510400000000000000000000EUDES DE CASSIA COSTA ARAUJO                                                  QUADRA 23 LOTE                                    044                                     VALE DO PEDREGAL              Novo Gama                                         GO00000000                                                                           
20000908120191031140827        RPS       0000000000002019103107539189211908269000197ORTHO LIFE CLINICA ODONTOLOGICA LTDA                                          Q CSB 02 LOTES 01 A 04 SALAS 417 A                420                                     TAGUATINGA                    Brasília                                          DF72015901                                                                           4         000000000000        000000000043200000000000000000051020200000000000000000000000000000000 10000978351215300000000000000000000ABDEMAR RODRIGUES QUEIROZ                                                     QUADRA 300 CONJUNTO 36 CASA 19                    019                                     BRASILIA                      Brasília                                          DF00000000                                                                           
20000913120191031130225        RPS       0000000000002019103107539189211908269000197ORTHO LIFE CLINICA ODONTOLOGICA LTDA                                          Q CSB 02 LOTES 01 A 04 SALAS 417 A                420                                     TAGUATINGA                    Brasília                                          DF72015901                                                                           4         000000000000        000000000016222000000000000000051020200000000000000000000000000000000 10000048853119500000000000000000000TANIA GENY DE MORAIS                                                          EPTG CHACARAS LUCIO COSTA CONJUNTO B CASA         001                                     GUARA                         Brasília                                          DF00000000                                                                           
20000913020191031130223        RPS       0000000000002019103107539189211908269000197ORTHO LIFE CLINICA ODONTOLOGICA LTDA                                          Q CSB 02 LOTES 01 A 04 SALAS 417 A                420                                     TAGUATINGA                    Brasília                                          DF72015901                                                                           4         000000000000        000000000009111000000000000000051020200000000000000000000000000000000 10009253007915300000000000000000000ALDO OLIVEIRA BARBOSA                                                         QNE 12                                            012                                     BRASILIA                      Brasília                                          DF00000000                                                                           
20000912920191031130220        RPS       0000000000002019103107539189211908269000197ORTHO LIFE CLINICA ODONTOLOGICA LTDA                                          Q CSB 02 LOTES 01 A 04 SALAS 417 A                420                                     TAGUATINGA                    Brasília                                          DF72015901                                                                           4         000000000000        000000000031500000000000000000051020200000000000000000000000000000000 10004616526613400000000000000000000MARCELO GOMES DA SILVA                                                        QSD 21 CASA 33                                    033                                     BRASILIA                      Brasília                                          DF00000000                                                                           
20000912820191031130217        RPS       0000000000002019103107539189211908269000197ORTHO LIFE CLINICA ODONTOLOGICA LTDA                                          Q CSB 02 LOTES 01 A 04 SALAS 417 A                420                                     TAGUATINGA                    Brasília                                          DF72015901                                                                           4         000000000000        000000000023000000000000000000051020200000000000000000000000000000000 10005597553410000000000000000000000ALESSANDRO DE LIMA NEIAS                                                      QNL 21 BLOCO D                                    021                                     BRASILIA                      Brasília                                          DF00000000                                                                           
20000912720191031130200        RPS       0000000000002019103107539189211908269000197ORTHO LIFE CLINICA ODONTOLOGICA LTDA                                          Q CSB 02 LOTES 01 A 04 SALAS 417 A                420                                     TAGUATINGA                    Brasília                                          DF72015901                                                                           4         000000000000        000000000080000000000000000000051020200000000000000000000000000000000 10000588872512900000000000000000000JOICE SILVA OLIVEIRA                                                          RUA QS 431 CONJUNTO D AP, 402                     402                                     BRASILIA                      Brasília                                          DF00000000                                                                           
20000912620191031130151        RPS       0000000000002019103107539189211908269000197ORTHO LIFE CLINICA ODONTOLOGICA LTDA                                          Q CSB 02 LOTES 01 A 04 SALAS 417 A                420                                     TAGUATINGA                    Brasília                                          DF72015901                                                                           4         000000000000        000000000095000000000000000000051020200000000000000000000000000000000 10000018528813800000000000000000000LIDIANE DE SOUSA FEITOSA                                                      QNP 16 CONJUNTO J CASA                            011                                     P SUL                         Brasília                                          DF00000000                                                                           
20000912520191031130149        RPS       0000000000002019103107539189211908269000197ORTHO LIFE CLINICA ODONTOLOGICA LTDA                                          Q CSB 02 LOTES 01 A 04 SALAS 417 A                420                                     TAGUATINGA                    Brasília                                          DF72015901                                                                           4         000000000000        000000000008667000000000000000051020200000000000000000000000000000000 10007220605510400000000000000000000LUDMILLA DE ALMEIDA VAZ                                                       QR 122 CONJUNTO 15 CASA 05                        005                                     BRASILIA                      Brasília                                          DF00000000                                                                           
20000912420191031130146        RPS       0000000000002019103107539189211908269000197ORTHO LIFE CLINICA ODONTOLOGICA LTDA                                          Q CSB 02 LOTES 01 A 04 SALAS 417 A                420                                     TAGUATINGA                    Brasília                                          DF72015901                                                                           4         000000000000        000000000033400000000000000000051020200000000000000000000000000000000 10007220605510400000000000000000000LUDMILLA DE ALMEIDA VAZ                                                       QR 122 CONJUNTO 15 CASA 05                        005                                     BRASILIA                      Brasília                                          DF00000000                                                                           
20000912320191031130141        RPS       0000000000002019103107539189211908269000197ORTHO LIFE CLINICA ODONTOLOGICA LTDA                                          Q CSB 02 LOTES 01 A 04 SALAS 417 A                420                                     TAGUATINGA                    Brasília                                          DF72015901                                                                           4         000000000000        000000000007000000000000000000051020200000000000000000000000000000000 10009906438312000000000000000000000NARA RODRIGUES DE ALMEIDA COSTA                                               QNL 14, VIA 01 CASA 11                            011                                     TAGUATINGA                    Brasília                                          DF00000000                                                                           
20000912220191031130138        RPS       0000000000002019103107539189211908269000197ORTHO LIFE CLINICA ODONTOLOGICA LTDA                                          Q CSB 02 LOTES 01 A 04 SALAS 417 A                420                                     TAGUATINGA                    Brasília                                          DF72015901                                                                           4         000000000000        000000000070000000000000000000051020200000000000000000000000000000000 10003796853013000000000000000000000ANTONIA LUCIA DA COSTA                                                        QNP 36 CONJ H CASA 28                             028                                     BRASILIA                      Brasília                                          DF00000000                                                                           
20000912120191031130135        RPS       0000000000002019103107539189211908269000197ORTHO LIFE CLINICA ODONTOLOGICA LTDA                                          Q CSB 02 LOTES 01 A 04 SALAS 417 A                420                                     TAGUATINGA                    Brasília                                          DF72015901                                                                           4         000000000000        000000000006000000000000000000051020200000000000000000000000000000000 10003796853013000000000000000000000ANTONIA LUCIA DA COSTA                                                        QNP 36 CONJ H CASA 28                             028                                     BRASILIA                      Brasília                                          DF00000000                                                                           
20000912020191031130130        RPS       0000000000002019103107539189211908269000197ORTHO LIFE CLINICA ODONTOLOGICA LTDA                                          Q CSB 02 LOTES 01 A 04 SALAS 417 A                420                                     TAGUATINGA                    Brasília                                          DF72015901                                                                           4         000000000000        000000000030000000000000000000051020200000000000000000000000000000000 10000049940910800000000000000000000GABRIELA BARBOSA DE SOUZA                                                     CNB 01 LOTE 12 APT 1002                           1002                                    TAGUATINGA                    Brasília                                          DF00000000                                                                           
20000911920191031130100        RPS       0000000000002019103107539189211908269000197ORTHO LIFE CLINICA ODONTOLOGICA LTDA                                          Q CSB 02 LOTES 01 A 04 SALAS 417 A                420                                     TAGUATINGA                    Brasília                                          DF72015901                                                                           4         000000000000        000000000011611000000000000000051020200000000000000000000000000000000 10005246009610000000000000000000000MARCILENE SILVA ROSA                                                          RUA 21 SUL LOTE 11 APTO 204                       204                                     BRASILIA                      Brasília                                          DF00000000                                                                           
20000911820191031130052        RPS       0000000000002019103107539189211908269000197ORTHO LIFE CLINICA ODONTOLOGICA LTDA                                          Q CSB 02 LOTES 01 A 04 SALAS 417 A                420                                     TAGUATINGA                    Brasília                                          DF72015901                                                                           4         000000000000        000000000039500000000000000000051020200000000000000000000000000000000 10008274293614900000000000000000000RINA CANDEIRA ARAUJO                                                          QS 4 CONJUNTO 7                                   007                                     BRASILIA                      Brasília                                          DF00000000                                                                           
20000911720191031130050        RPS       0000000000002019103107539189211908269000197ORTHO LIFE CLINICA ODONTOLOGICA LTDA                                          Q CSB 02 LOTES 01 A 04 SALAS 417 A                420                                     TAGUATINGA                    Brasília                                          DF72015901                                                                           4         000000000000        000000000007000000000000000000051020200000000000000000000000000000000 10008997711415300000000000000000000FRANKLIN BARBOSA CONCEICAO SILVA                                              QC 02 CONJUNTO I CASA 19                          019                                     SANTA MARIA                   Brasília                                          DF00000000                                                                           
20000911620191031130047        RPS       0000000000002019103107539189211908269000197ORTHO LIFE CLINICA ODONTOLOGICA LTDA                                          Q CSB 02 LOTES 01 A 04 SALAS 417 A                420                                     TAGUATINGA                    Brasília                                          DF72015901                                                                           4         000000000000        000000000046833000000000000000051020200000000000000000000000000000000 10009827312413400000000000000000000ANDREIA MARIA DOS SANTOS                                                      QN 502 CONJ 09 LOTE 1-3 APT 913                   913                                     BRASILIA                      Brasília                                          DF00000000                                                                           
20000911520191031130044        RPS       0000000000002019103107539189211908269000197ORTHO LIFE CLINICA ODONTOLOGICA LTDA                                          Q CSB 02 LOTES 01 A 04 SALAS 417 A                420                                     TAGUATINGA                    Brasília                                          DF72015901                                                                           4         000000000000        000000000007000000000000000000051020200000000000000000000000000000000 10005044924911500000000000000000000ELIANA MARTINS DA SILVA ARVELOS                                               QUADRA 04 SUL CASA 013                            013                                     BRASILIA                      Brasília                                          DF00000000                                                                           
20000911420191031130041        RPS       0000000000002019103107539189211908269000197ORTHO LIFE CLINICA ODONTOLOGICA LTDA                                          Q CSB 02 LOTES 01 A 04 SALAS 417 A                420                                     TAGUATINGA                    Brasília                                          DF72015901                                                                           4         000000000000        000000000007000000000000000000051020200000000000000000000000000000000 10003796853013000000000000000000000ANTONIA LUCIA DA COSTA                                                        QNP 36 CONJ H CASA 28                             028                                     BRASILIA                      Brasília                                          DF00000000                                                                           
20000911320191031130037        RPS       0000000000002019103107539189211908269000197ORTHO LIFE CLINICA ODONTOLOGICA LTDA                                          Q CSB 02 LOTES 01 A 04 SALAS 417 A                420                                     TAGUATINGA                    Brasília                                          DF72015901                                                                           4         000000000000        000000000028000000000000000000051020200000000000000000000000000000000 10007027368510400000000000000000000ADRIANA FRANCO GOMES VIEIRA                                                   RUA 5 CHACARA 117 LOTE 09                         009                                     BRASILIA                      Brasília                                          DF00000000                                                                           
20000911220191031130034        RPS       0000000000002019103107539189211908269000197ORTHO LIFE CLINICA ODONTOLOGICA LTDA                                          Q CSB 02 LOTES 01 A 04 SALAS 417 A                420                                     TAGUATINGA                    Brasília                                          DF72015901                                                                           4         000000000000        000000000026000000000000000000051020200000000000000000000000000000000 10000370730712300000000000000000000JESSICA MARIA DE ARAUJO GONCALVES                                             QS 5 RUA 840                                      840                                     BRASILIA                      Brasília                                          DF00000000                                                                           
20000911120191031130032        RPS       0000000000002019103107539189211908269000197ORTHO LIFE CLINICA ODONTOLOGICA LTDA                                          Q CSB 02 LOTES 01 A 04 SALAS 417 A                420                                     TAGUATINGA                    Brasília                                          DF72015901                                                                           4         000000000000        000000000143400000000000000000051020200000000000000000000000000000000 10004616526613400000000000000000000MARCELO GOMES DA SILVA                                                        QSD 21 CASA 33                                    033                                     BRASILIA                      Brasília                                          DF00000000                                                                           
20000911020191031130028        RPS       0000000000002019103107539189211908269000197ORTHO LIFE CLINICA ODONTOLOGICA LTDA                                          Q CSB 02 LOTES 01 A 04 SALAS 417 A                420                                     TAGUATINGA                    Brasília                                          DF72015901                                                                           4         000000000000        000000000062900000000000000000051020200000000000000000000000000000000 10008032468110000000000000000000000ALINE DA SILVA NUNES                                                          QN 120 CONJUNTO 08 CASA 31                        031                                     BRASILIA                      Brasília                                          DF00000000                                                                           
20000910920191031130025        RPS       0000000000002019103107539189211908269000197ORTHO LIFE CLINICA ODONTOLOGICA LTDA                                          Q CSB 02 LOTES 01 A 04 SALAS 417 A                420                                     TAGUATINGA                    Brasília                                          DF72015901                                                                           4         000000000000        000000000009000000000000000000051020200000000000000000000000000000000 10007221313210000000000000000000000DEBORA PEREIRA DA ROCHA SOARES                                                QD 209 LOTE 02 BLOCO A APT                        1103                                    TAGUATINGA                    Brasília                                          DF00000000                                                                           
20000910820191031130020        RPS       0000000000002019103107539189211908269000197ORTHO LIFE CLINICA ODONTOLOGICA LTDA                                          Q CSB 02 LOTES 01 A 04 SALAS 417 A                420                                     TAGUATINGA                    Brasília                                          DF72015901                                                                           4         000000000000        000000000008000000000000000000051020200000000000000000000000000000000 10009871403119100000000000000000000INGRYD MORAIS AGUIAR                                                          CSB 03 LOTE 05 APT 106                            106                                     TAGUATINGA                    Brasília                                          DF00000000                                                                           
20000910720191031130016        RPS       0000000000002019103107539189211908269000197ORTHO LIFE CLINICA ODONTOLOGICA LTDA                                          Q CSB 02 LOTES 01 A 04 SALAS 417 A                420                                     TAGUATINGA                    Brasília                                          DF72015901                                                                           4         000000000000        000000000021000000000000000000051020200000000000000000000000000000000 10000096509945800000000000000000000FLAVIANA ROBERTA DAMASCENA DE FRANCA CAMARA                                   RUA 30 NORTE LOTE 03 APTO 1509                    1509                                    BRASILIA                      Brasília                                          DF00000000                                                                           
20000910620191031130014        RPS       0000000000002019103107539189211908269000197ORTHO LIFE CLINICA ODONTOLOGICA LTDA                                          Q CSB 02 LOTES 01 A 04 SALAS 417 A                420                                     TAGUATINGA                    Brasília                                          DF72015901                                                                           4         000000000000        000000000033000000000000000000051020200000000000000000000000000000000 10004618905018200000000000000000000LEONARDO JOSE PEREIRA                                                         QNH 11 AREA ESPECIAL 3 APT 607                    607                                     BRASILIA                      Brasília                                          DF00000000                                                                           
20000910520191031130011        RPS       0000000000002019103107539189211908269000197ORTHO LIFE CLINICA ODONTOLOGICA LTDA                                          Q CSB 02 LOTES 01 A 04 SALAS 417 A                420                                     TAGUATINGA                    Brasília                                          DF72015901                                                                           4         000000000000        000000000007000000000000000000051020200000000000000000000000000000000 10006946109015300000000000000000000MARCELO SARMENTO DA COSTA                                                     RUA 1 CHACARA 25/03 CASA                          59A                                     VICENTE PIRES                 Brasília                                          DF00000000                                                                           
20000910420191031130008        RPS       0000000000002019103107539189211908269000197ORTHO LIFE CLINICA ODONTOLOGICA LTDA                                          Q CSB 02 LOTES 01 A 04 SALAS 417 A                420                                     TAGUATINGA                    Brasília                                          DF72015901                                                                           4         000000000000        000000000050000000000000000000051020200000000000000000000000000000000 10000341636215200000000000000000000LARISSA LUCAS DE SOUZA                                                        RUA QUADRA 102 LOTE 08 RESIDENCIAL MONT PELIER, 0 102                                     BRASILIA                      Brasília                                          DF00000000                                                                           
20000910320191031130005        RPS       0000000000002019103107539189211908269000197ORTHO LIFE CLINICA ODONTOLOGICA LTDA                                          Q CSB 02 LOTES 01 A 04 SALAS 417 A                420                                     TAGUATINGA                    Brasília                                          DF72015901                                                                           4         000000000000        000000000026100000000000000000051020200000000000000000000000000000000 10008176929611500000000000000000000FRANCISCA REIS EDUARDO DA SILVA                                               QSD 17 CASA                                       037                                     TAGUATINGA SUL                Brasília                                          DF00000000                                                                           
20000910220191031130002        RPS       0000000000002019103107539189211908269000197ORTHO LIFE CLINICA ODONTOLOGICA LTDA                                          Q CSB 02 LOTES 01 A 04 SALAS 417 A                420                                     TAGUATINGA                    Brasília                                          DF72015901                                                                           4         000000000000        000000000010000000000000000000051020200000000000000000000000000000000 10001046910868100000000000000000000EMANUEL HERINQUE LOPES DOS SANTOS                                             AC 03 BLOCO 20                                    020                                     RIACHO FUNDO I                Brasília                                          DF00000000                                                                           
20000910120191031125959        RPS       0000000000002019103107539189211908269000197ORTHO LIFE CLINICA ODONTOLOGICA LTDA                                          Q CSB 02 LOTES 01 A 04 SALAS 417 A                420                                     TAGUATINGA                    Brasília                                          DF72015901                                                                           4         000000000000        000000000008000000000000000000051020200000000000000000000000000000000 10008957011110000000000000000000000ISABEL CRISTINA DA SILVA GOMES                                                QR 118 CJ 10 CASA 10                              010                                     SAMAMBAIA                     Brasília                                          DF00000000                                                                           
20000910020191031125950        RPS       0000000000002019103107539189211908269000197ORTHO LIFE CLINICA ODONTOLOGICA LTDA                                          Q CSB 02 LOTES 01 A 04 SALAS 417 A                420                                     TAGUATINGA                    Brasília                                          DF72015901                                                                           4         000000000000        000000000014000000000000000000051020200000000000000000000000000000000 10000878975160400000000000000000000RAYANNE FERREIRA BARBOSA                                                      QUADRA 38 BLOCO A 17 APTO 01 CONDOMINIO SAO JOAO D017                                     BRASILIA                      Brasília                                          DF00000000                                                                           
20000909920191031125948        RPS       0000000000002019103107539189211908269000197ORTHO LIFE CLINICA ODONTOLOGICA LTDA                                          Q CSB 02 LOTES 01 A 04 SALAS 417 A                420                                     TAGUATINGA                    Brasília                                          DF72015901                                                                           4         000000000000        000000000025125000000000000000051020200000000000000000000000000000000 10006570914421500000000000000000000JANICE MARY LIMA DA SILVA DOMINGUES                                           SHA CONJUNTO 6 CHACARA 15-1                       015                                     BRASILIA                      Brasília                                          DF00000000                                                                           
20000909820191031125945        RPS       0000000000002019103107539189211908269000197ORTHO LIFE CLINICA ODONTOLOGICA LTDA                                          Q CSB 02 LOTES 01 A 04 SALAS 417 A                420                                     TAGUATINGA                    Brasília                                          DF72015901                                                                           4         000000000000        000000000014000000000000000000051020200000000000000000000000000000000 10000024010553200000000000000000000JUCIMAR DE JESUS SOARES                                                       QUADRA 02 CONJ B LOTE 31                          031                                     BRASILIA                      Brasília                                          DF00000000                                                                           
20000909720191031125941        RPS       0000000000002019103107539189211908269000197ORTHO LIFE CLINICA ODONTOLOGICA LTDA                                          Q CSB 02 LOTES 01 A 04 SALAS 417 A                420                                     TAGUATINGA                    Brasília                                          DF72015901                                                                           4         000000000000        000000000014000000000000000000051020200000000000000000000000000000000 10007367590316800000000000000000000DEISIANE NEVES MACHADO                                                        QR 410 CONJUNTO 03 CASA 20                        020                                     SAMAMBAIA                     Brasília                                          DF00000000                                                                           
20000909620191031125851        RPS       0000000000002019103107539189211908269000197ORTHO LIFE CLINICA ODONTOLOGICA LTDA                                          Q CSB 02 LOTES 01 A 04 SALAS 417 A                420                                     TAGUATINGA                    Brasília                                          DF72015901                                                                           4         000000000000        000000000100000000000000000000051020200000000000000000000000000000000 10007027747812000000000000000000000PAULA SANTANA LOPES DA SILVA                                                  CLN 7 BLOCO K LT 03 AP 204                        204                                     BRASILIA                      Brasília                                          DF00000000                                                                           
20000909520191031125848        RPS       0000000000002019103107539189211908269000197ORTHO LIFE CLINICA ODONTOLOGICA LTDA                                          Q CSB 02 LOTES 01 A 04 SALAS 417 A                420                                     TAGUATINGA                    Brasília                                          DF72015901                                                                           4         000000000000        000000000025000000000000000000051020200000000000000000000000000000000 10003175624715300000000000000000000MARIA APARECIDA SOARES DE OLIVEIRA                                            RUA 1 CHACARA 22, LOTE                            1B                                      TAGUATINGA                    Brasília                                          DF00000000                                                                           
20000909420191031125846        RPS       0000000000002019103107539189211908269000197ORTHO LIFE CLINICA ODONTOLOGICA LTDA                                          Q CSB 02 LOTES 01 A 04 SALAS 417 A                420                                     TAGUATINGA                    Brasília                                          DF72015901                                                                           4         000000000000        000000000140000000000000000000051020200000000000000000000000000000000 10003811714210400000000000000000000MARIA JOSE DA SILVA NEIVA                                                     CSB 3 LOTE 03                                     003                                     BRASILIA                      Brasília                                          DF00000000                                                                           
20000909320191031125736        RPS       0000000000002019103107539189211908269000197ORTHO LIFE CLINICA ODONTOLOGICA LTDA                                          Q CSB 02 LOTES 01 A 04 SALAS 417 A                420                                     TAGUATINGA                    Brasília                                          DF72015901                                                                           4         000000000000        000000000006000000000000000000051020200000000000000000000000000000000 10003982521319100000000000000000000WANDERSONIA MARQUES DOS SANTOS                                                QNM 21 CONJUNTO H CASA 13                         013                                     CEILANDIA                     Brasília                                          DF00000000                                                                           
20000909220191031125733        RPS       0000000000002019103107539189211908269000197ORTHO LIFE CLINICA ODONTOLOGICA LTDA                                          Q CSB 02 LOTES 01 A 04 SALAS 417 A                420                                     TAGUATINGA                    Brasília                                          DF72015901                                                                           4         000000000000        000000000006000000000000000000051020200000000000000000000000000000000 10007258937013000000000000000000000TATIANE SOARES                                                                BR 060 KM 30 ENGENHO DAS LAJES RUA RORIZ          SN                                      GAMA                          Brasília                                          DF00000000                                                                           
20000909120191031125731        RPS       0000000000002019103107539189211908269000197ORTHO LIFE CLINICA ODONTOLOGICA LTDA                                          Q CSB 02 LOTES 01 A 04 SALAS 417 A                420                                     TAGUATINGA                    Brasília                                          DF72015901                                                                           4         000000000000        000000000007000000000000000000051020200000000000000000000000000000000 10004431584811500000000000000000000RONNY JULIO                                                                   QUADRA 102 CONJUNTO 2                             002                                     BRASILIA                      Brasília                                          DF00000000                                                                           
20000909020191031125728        RPS       0000000000002019103107539189211908269000197ORTHO LIFE CLINICA ODONTOLOGICA LTDA                                          Q CSB 02 LOTES 01 A 04 SALAS 417 A                420                                     TAGUATINGA                    Brasília                                          DF72015901                                                                           4         000000000000        000000000006000000000000000000051020200000000000000000000000000000000 10005049985811500000000000000000000DONIZETE OLIVEIRA FERREIRA                                                    QNN 26 CONJUNTO E CASA 36                         036                                     CEILANDIA                     Brasília                                          DF00000000                                                                           
20000908920191031125726        RPS       0000000000002019103107539189211908269000197ORTHO LIFE CLINICA ODONTOLOGICA LTDA                                          Q CSB 02 LOTES 01 A 04 SALAS 417 A                420                                     TAGUATINGA                    Brasília                                          DF72015901                                                                           4         000000000000        000000000010000000000000000000051020200000000000000000000000000000000 10001187250015300000000000000000000MARIA DO ROSARIO CAVALCANTE                                                   QI 25 LT 12/14 BLOCO H APT.                       641                                     GUARA II                      Brasília                                          DF00000000                                                                           
20000908820191031125435        RPS       0000000000002019103107539189211908269000197ORTHO LIFE CLINICA ODONTOLOGICA LTDA                                          Q CSB 02 LOTES 01 A 04 SALAS 417 A                420                                     TAGUATINGA                    Brasília                                          DF72015901                                                                           4         000000000000        000000000040000000000000000000051020200000000000000000000000000000000 10001834559014400000000000000000000JOSE RIBAMAR GOMES DE OLIVEIRA                                                SHA CONJUNTO 4 CHACARA 89                         089                                     BRASILIA                      Brasília                                          DF00000000                                                                           
20000908720191031125433        RPS       0000000000002019103107539189211908269000197ORTHO LIFE CLINICA ODONTOLOGICA LTDA                                          Q CSB 02 LOTES 01 A 04 SALAS 417 A                420                                     TAGUATINGA                    Brasília                                          DF72015901                                                                           4         000000000000        000000000024000000000000000000051020200000000000000000000000000000000 10005533128913400000000000000000000GILSON BARBOZA CORREIA                                                        QR 402 CONJUNTO 23 CASA 20                        020                                     BRASILIA                      Brasília                                          DF00000000                                                                           
20000908620191031125430        RPS       0000000000002019103107539189211908269000197ORTHO LIFE CLINICA ODONTOLOGICA LTDA                                          Q CSB 02 LOTES 01 A 04 SALAS 417 A                420                                     TAGUATINGA                    Brasília                                          DF72015901                                                                           4         000000000000        000000000110000000000000000000051020200000000000000000000000000000000 10003271170010000000000000000000000EDINEUSA RODRIGUES NEVES                                                      QNM 19 CONJ G CASA                                13A                                     CEILANDIA                     Brasília                                          DF00000000                                                                           
20000908520191031125428        RPS       0000000000002019103107539189211908269000197ORTHO LIFE CLINICA ODONTOLOGICA LTDA                                          Q CSB 02 LOTES 01 A 04 SALAS 417 A                420                                     TAGUATINGA                    Brasília                                          DF72015901                                                                           4         000000000000        000000000054000000000000000000051020200000000000000000000000000000000 10002290179523400000000000000000000RUTH HELENA PINHEIRO DE SOUZA VARELA                                          QNJ 17 LOTE 11 APTO 202                           202                                     BRASILIA                      Brasília                                          DF00000000                                                                           
20000908420191031125425        RPS       0000000000002019103107539189211908269000197ORTHO LIFE CLINICA ODONTOLOGICA LTDA                                          Q CSB 02 LOTES 01 A 04 SALAS 417 A                420                                     TAGUATINGA                    Brasília                                          DF72015901                                                                           4         000000000000        000000000048000000000000000000051020200000000000000000000000000000000 10000402403517700000000000000000000PAULO ANTONIO PEREIRA DE SOUSA                                                QNP 30 CONJUNTO C CASA 38                         038                                     BRASILIA                      Brasília                                          DF00000000                                                                           
20000908320191031125423        RPS       0000000000002019103107539189211908269000197ORTHO LIFE CLINICA ODONTOLOGICA LTDA                                          Q CSB 02 LOTES 01 A 04 SALAS 417 A                420                                     TAGUATINGA                    Brasília                                          DF72015901                                                                           4         000000000000        000000000031800000000000000000051020200000000000000000000000000000000 10004732530516800000000000000000000ELISA CLAUDIA FRANCA                                                          QD 204 LOTE 04 BLOCO A APT 1203                   1203                                    AGUAS CLARAS                  Brasília                                          DF00000000                                                                           
20000908220191031125420        RPS       0000000000002019103107539189211908269000197ORTHO LIFE CLINICA ODONTOLOGICA LTDA                                          Q CSB 02 LOTES 01 A 04 SALAS 417 A                420                                     TAGUATINGA                    Brasília                                          DF72015901                                                                           4         000000000000        000000000250000000000000000000051020200000000000000000000000000000000 10008532355110000000000000000000000SONIA PEREIRA DOS SANTOS OSTEMBERG                                            QNP 09 CONJ D CASA 34A                            034                                     BRASILIA                      Brasília                                          DF00000000                                                                           
20000908020191031125102        RPS       0000000000002019103107539189211908269000197ORTHO LIFE CLINICA ODONTOLOGICA LTDA                                          Q CSB 02 LOTES 01 A 04 SALAS 417 A                420                                     TAGUATINGA                    Brasília                                          DF72015901                                                                           4         000000000000        000000000155000000000000000000051020200000000000000000000000000000000 10007137762018200000000000000000000ELAINE DA SILVA ALVES SOBRINHO DOS SANTOS                                     RUA QR 510 CONJUNTO 3 CASA , 27                   027                                     BRASILIA                      Brasília                                          DF00000000                                                                           
20000907920191029142959        RPS       0000000000002019102907539189211908269000197ORTHO LIFE CLINICA ODONTOLOGICA LTDA                                          Q CSB 02 LOTES 01 A 04 SALAS 417 A                420                                     TAGUATINGA                    Brasília                                          DF72015901                                                                           4         000000000000        000000000763340000000000000000059330200000000000000000000000000000000 22930912700947800000000732413900404AMIL ASSISTENCIA MEDICA INTERNACIONAL SA                                      ST SMAS,                                          6580                                    ZONA INDUSTRIAL (GUARA)       Brasília                                          DF00000000                                                                           
20000907820191029142629        RPS       0000000000002019102907539189211908269000197ORTHO LIFE CLINICA ODONTOLOGICA LTDA                                          Q CSB 02 LOTES 01 A 04 SALAS 417 A                420                                     TAGUATINGA                    Brasília                                          DF72015901                                                                           4         000000000000        000000000086670000000000000000051020200000000000000000000000000000000 10007582888030600000000000000000000FLAVIO BARREIRA MASCARENHAS                                                   CSB 04 LOTE 4/8                                   004                                     BRASILIA                      Brasília                                          DF00000000                                                                           
20000907720191028093839        RPS       0000000000002019102807539189211908269000197ORTHO LIFE CLINICA ODONTOLOGICA LTDA                                          Q CSB 02 LOTES 01 A 04 SALAS 417 A                420                                     TAGUATINGA                    Brasília                                          DF72015901                                                                           4         000000000000        000000000006800000000000000000059330200000000000000000000000000000000 23352394500014700000000751573600189OBRAS ASSISTENCIAIS PADRE NATALE BATEZZI                                      QUADRA 12 AREA ESPECIAL 01 SETOR LESTE            001                                     BRASILIA                      Brasília                                          DF00000000                                                                           
20000907620191028093836        RPS       0000000000002019102807539189211908269000197ORTHO LIFE CLINICA ODONTOLOGICA LTDA                                          Q CSB 02 LOTES 01 A 04 SALAS 417 A                420                                     TAGUATINGA                    Brasília                                          DF72015901                                                                           4         000000000000        000000000022100000000000000000059330200000000000000000000000000000000 23352394500014700000000751573600189OBRAS ASSISTENCIAIS PADRE NATALE BATEZZI                                      QUADRA 12 AREA ESPECIAL 01 SETOR LESTE            001                                     BRASILIA                      Brasília                                          DF00000000                                                                           
20000907520191028093833        RPS       0000000000002019102807539189211908269000197ORTHO LIFE CLINICA ODONTOLOGICA LTDA                                          Q CSB 02 LOTES 01 A 04 SALAS 417 A                420                                     TAGUATINGA                    Brasília                                          DF72015901                                                                           4         000000000000        000000000023800000000000000000059330200000000000000000000000000000000 23352394500014700000000751573600189OBRAS ASSISTENCIAIS PADRE NATALE BATEZZI                                      QUADRA 12 AREA ESPECIAL 01 SETOR LESTE            001                                     BRASILIA                      Brasília                                          DF00000000                                                                           
